:020000040000FA
:1000000080312328053008007E1480310B1F212801
:100010002100111E15282000111E15282200640839
:100020008A0063080A00803121282100911E2128BE
:100030002000911E2128220062088A0061080A001F
:1000400080317E100900803125287B3084009E306D
:1000500085006A3086000130870004309E31C32657
:100060008031B93084009F308500A0308600023096
:10007000870017309E31C3268031FC012100ED013D
:10008000EE01EF0144308400013085001D309E31C7
:10009000BD268031A0308400013085002D309E3196
:1000A000BD268031203084000230850050309E31E2
:1000B000BD267E1020009331002B2100BC00BA0128
:1000C000BB01200057082100D00020005608210065
:1000D000CF00200055082100CE0020005408210048
:1000E000CD0050082000BD0021004F082000BC00BA
:1000F00021004E082000BB0021004D082000BA005E
:100100000030C1000030C0000030BF000030BE0031
:1001100096312E2680310318A62801302100BA001E
:100120000030BB005008F4004F08F3004E08F20006
:100130004D08F1009E31FA26803174082100D0006C
:100140007308CF007208CE007108CD002100D301E2
:10015000D401220057082100C100220056082100C6
:10016000C0003A083B04031DB82822005A1DD228BB
:1001700021003A083B04031DBF282B30C0282D3036
:10018000A4000030A50024082000D900590824004C
:10019000A00001302100D3070030D43DFF30C0075C
:1001A000FF30C13D21005008F4004F08F3004E0815
:1001B000F2004D08F1009531B625803171037204CB
:1001C000031D2A2920005808BF3ED900FF3003181C
:1001D0000030DA0000305A021A30031959020318AD
:1001E000F3280130F4280030DB00DC015B0821003B
:1001F000A60020005C082100A70026082704031998
:1002000005292130F100A03008292930F100A03063
:10021000F2005308203E90319D208031FD302100B6
:10022000C007FF30C13D20302000D9005908A80088
:10023000210041082000AA00210040082000A90058
:1002400021003C0894315E2420002908D5002808AC
:10025000D400080021005008F4004F08F3004E08B5
:10026000F2004D08F1009531B62580317108720415
:10027000031D822920005808BF3ED900FF30031813
:100280000030DA0000305A021A30031959020318FC
:100290004B2901304C290030DB00DC015B082100D8
:1002A000A80020005C082100A900280829040319DF
:1002B0005D292530F100A03060292D30F100A030FB
:1002C000F2005308203E90319D208031FD30210006
:1002D000C007FF30C13D20302000D9005908A800D8
:1002E000210041082000AA00210040082000A900A8
:1002F00021003C0894315E2420002908D5002808FC
:10030000D40008003F302100D8008030D7000030F2
:10031000D6000030D500D101D2015008F4004F08BA
:10032000F3004E08F2004D08F1000030F8000030F4
:10033000F7000030F6000030F500883100208031F1
:10034000031CD329622A41302000A3002030A200E0
:100350000030A1000030A000210058082000A700B4
:10036000210057082000A600210056082000A50003
:10037000210055082000A4008D31D42580312000B3
:1003800023082100D800200022082100D7002000E7
:1003900021082100D600200020082100D5000130CE
:1003A000D1070030D23D210050082000BD002100BF
:1003B0004F082000BC0021004E082000BB00210097
:1003C0004D082000BA004130A3002030A2000030C8
:1003D000A1000030A000210058082000A700210043
:1003E00057082000A600210056082000A500210083
:1003F00055082000A4008D31D42580312000230829
:10040000C1002208C0002108BF002008BE009631AC
:100410002E268031031C3D2AA32941302000A9004B
:100420002030A8000030A7000030A60021005808A6
:100430002000AD00210057082000AC002100560824
:100440002000AB00210055082000AA008831DF20E1
:100450008031200029082100D80020002808210030
:10046000D700200027082100D60020002608210000
:10047000D500FF30D107FF30D23D210050082000C9
:10048000BD0021004F082000BC0021004E082000C4
:10049000BB0021004D082000BA00210058082000B0
:1004A000C100210057082000C0002100560820008C
:1004B000BF00210055082000BE0096312E26803155
:1004C000031C0D2A20005808D900DA015908F7004A
:1004D0005A08F8009031DC20803177082000DB00DA
:1004E0005B082100C20042082000D9005908210001
:1004F000BF0067304206031D992A2200580859049C
:10050000031D862A0130D8000030D9005908803AEE
:100510002000D90080305902031D912A01302200A9
:10052000580203189C2A06302100BD000030BE008E
:10053000A42A2200D91B932A220059082100BE00B8
:10054000220058082100BD0067304206031DD72A4B
:100550005208803A2000D9007F305902031DB32A87
:10056000FC3021005102031CD12A21003D08FF3E2E
:100570002000D900FF3021003E3D2000DA005A085B
:10058000803ADB0021005208803A20005B02031D04
:10059000CD2A2100510820005902031CD12A6630BF
:1005A000D22A65302000D90059082100BF003E083A
:1005B000B5003D08B40067304206031DE42A6630EA
:1005C0003F060319D21FE82A0130B4070030B53DB9
:1005D00066303F06031D002BD21FF82A3F30D8009B
:1005E0008030D7000030D6000030D500D101D201D4
:1005F000673042060319002B5108B4075208B53D75
:10060000CB01CC015008C6004F08C5004E08C400FD
:100610004D08C3005808A3005708A2005608A100BF
:100620005508A0004C08803A2000D9002100350868
:10063000803A20005902031D202B210034084B0270
:100640000318F02B210058082000A90021005708AA
:100650002000A800210056082000A700210055080E
:100660002000A600210046082000AD00210045081A
:100670002000AC00210044082000AB00210043080A
:100680002000AA008831DF20803120002908C30023
:100690002808C2002708C1002608C0008631F126BC
:1006A0008031200043082100CA00200042082100B8
:1006B000C900200041082100C80020004008210096
:1006C000C7004A08F4004908F3004808F200470848
:1006D000F10095315125803172082100B90071086F
:1006E000B8004A082000A700210049082000A60001
:1006F000210048082000A500210047082000A40090
:10070000210058082000A300210057082000A20063
:10071000210056082000A100210055082000A0005B
:100720008D31D425803120002308BD002208BC0073
:100730002108BB002008BA00210046082000C100A3
:10074000210045082000C000210044082000BF000F
:10075000210043082000BE0090317E20803120001F
:100760003D082100C60020003C082100C5002000F3
:100770003B082100C40020003A082100C30041309A
:100780002000A9002030A8000030A7000030A600FB
:10079000210058082000AD00210057082000AC00BF
:1007A000210056082000AB00210055082000AA00B7
:1007B0008831DF208031200029082100D800200066
:1007C00028082100D700200027082100D60020009B
:1007D00026082100D5000130CB070030CC3D122B7C
:1007E00040302000A300A030A2000030A100003063
:1007F000A000210058082000A70021005708200071
:10080000A600210056082000A50021005508200060
:10081000A4008D31D4258031200023082100CA0096
:10082000200022082100C900200021082100C80062
:10083000200020082100C70046082000BD0021003C
:1008400045082000BC00210044082000BB00210016
:1008500043082000BA0021004A082000C1002100FE
:1008600049082000C000210048082000BF002100E6
:1008700047082000BE0096312E2680310318432CF5
:10088000003021005D2C21004608F4004508F300EB
:100890004408F2004308F1004A08F8004908F7004C
:1008A0004808F6004708F500883100208031031C15
:1008B000642C21003818642C0030CA000030C900B4
:1008C0000030C8000030C70021004A08F400490881
:1008D000F3004808F2004708F1005008F8004F08FC
:1008E000F7004E08F6004D08F5008B31F2238031F9
:1008F00074082100C6007308C5007208C40071089E
:10090000C3002308D8002208D7002108D6002008F9
:10091000D50065303F060319922C5208B7005108E4
:10092000B600942CB601B701B201B301B001B10118
:10093000CB01CC01D12D210058082000A9002100B5
:1009400057082000A800210056082000A700210019
:1009500055082000A600210046082000AD00210017
:1009600045082000AC00210044082000AB00210015
:1009700043082000AA008831DF20803120002908A8
:10098000C3002808C2002708C1002608C00086311D
:10099000F1268031200043082100CA0020004208CF
:1009A0002100C900200041082100C80020004008A3
:1009B0002100C7004A08F4004908F3004808F20083
:1009C0004708F10095315125803172082100B900A6
:1009D0007108B80022005A1AFC2C2100380839048A
:1009E000031DFC2C673042060319B71FFC2C013095
:1009F000B0070030B13D4F2D2100320833040319F8
:100A0000B71F1B2D2E302000D90021005308203E97
:100A10008600023087002000590881000130210043
:100A2000D3070030D43DFF30C007FF30C13D013057
:100A3000B2000030B300300831040319392D3030D2
:100A40002000D90021005308203E86000230870094
:100A500020005908810001302100D3070030D43D27
:100A6000FF30C007FF30C13DFF30B007FF30B13D60
:100A70001B2D3808303E2000D90021005308203EAD
:100A800086000230870020005908810001302100D3
:100A9000D3070030D43DFF30C007FF30C13D4A08C6
:100AA0002000A700210049082000A60021004808D6
:100AB0002000A500210047082000A40021005808BC
:100AC0002000A300210057082000A20021005608A2
:100AD0002000A100210055082000A0008D31D42560
:100AE000803120002308BD002208BC002108BB0083
:100AF0002008BA00210046082000C1002100450856
:100B00002000C000210044082000BF00210043084D
:100B10002000BE0090317E20803120003D08210061
:100B2000C60020003C082100C50020003B08210031
:100B3000C40020003A082100C30041302000A90071
:100B40002030A8000030A7000030A600210058087F
:100B50002000AD00210057082000AC0021005608FD
:100B60002000AB00210055082000AA008831DF20BA
:100B70008031200029082100D80020002808210009
:100B8000D700200027082100D600200026082100D9
:100B9000D500FF30B607FF30B73D0130CB0700303E
:100BA000CC3D4C08803A2000D90021003508803A1D
:100BB00020005902031DDF2D210034084B020318C9
:100BC000EF2D21005408803A2000D90080305902CE
:100BD000031DED2D4B3021005302031C9B2C2100E3
:100BE00032083304031D082E22005A1E082E2E3010
:100BF0002000D90021005308203E860002308700E3
:100C000020005908810001302100D3070030D43D75
:100C100021005308203E86000230870081016530A4
:100C20003F06031DDA2E4F30CB000030CC004B08BE
:100C3000203E8600023087008101BA01BB01D21F2D
:100C40002A2E0130BA000030BB00D109D209D10AE6
:100C50000319D20A0230BD000030BE005108520410
:100C60000319692EFF302100CB07FF30CC3D0A303D
:100C7000F1000030F2005208F4005108F300933103
:100C8000842380317108303E2000D90021004B08B8
:100C9000203E8600023087002000590881000A307B
:100CA000F1000030F20021005208F4005108F30076
:100CB0009431AE24803172082100D2007108D10035
:100CC000FF30BD07FF30BE3DFF30C007FF30C13DE4
:100CD0002E2E3E08803A2000D90080305902031D94
:100CE000742E013021003D020318322EFF30210006
:100CF000CB07FF30CC3D3A083B04031D812E2B303F
:100D0000822E2D30AA000030AB002A082000D90026
:100D100021004B08203E8600023087002000590841
:100D20008100FF302100C007FF30C13DFF30CB07FD
:100D3000FF30CC3D20005808BF3ED900FF300318DB
:100D40000030DA0000305A021A3003195902031831
:100D5000AB2E0130AC2E0030DB00DC015B08210043
:100D6000AE0020005C082100AF002E082F04031DF8
:100D7000BB2E6530BC2E4530AC000030AD002C08D9
:100D80002000D90021004B08203E86000230870059
:100D9000200059088100FF302100C007FF30C13D0D
:100DA0004B08203EF1000230F2005308203E903103
:100DB0009D20803120302000D9005908A800210052
:100DC00041082000AA00210040082000A9002100BD
:100DD0003C0894315E2420002908D5002808D4005E
:100DE000080022004F082000D30022004E082000F7
:100DF000D20022004D082000D10022004C08200023
:100E0000D0004308D3004208D2004108D100400876
:100E1000D0005008C4005108C5005208C60053084D
:100E2000C7001730C736C60CC50CC40C890B122F6F
:100E3000FF304405C80000304505C9004808813E20
:100E4000CE00FF30493DCF004F08803AC4008030CB
:100E50004402031D2D2F17304E02031808002000F6
:100E6000CF1B8A2FFF30C400FF30C5007F30C60083
:100E70000030C7004E0A402FC737C60CC50CC40C43
:100E8000890B3C2F4708CD004608CC004508CB0015
:100E90004408CA0050084A05C40051084B05C50063
:100EA00052084C05C60053084D05C70047084604C4
:100EB00045044404031908005008C4005108C50043
:100EC0005208C6005308C7001F30C736C60CC50CF1
:100ED000C40C890B652F47084604450444040319D4
:100EE000792F4A08D0074B08D13D4C08D23D4D0818
:100EF000D33D4A09C4004B09C5004C09C6004D0941
:100F0000C7004408D0054508D1054608D205470862
:100F1000D305C02F5008C4005108C5005208C600B0
:100F20005308C7001F30C736C60CC50CC40C890B4C
:100F3000932F4708460445044404031DA32F0030A3
:100F4000D3000030BB2F5008C4005108C500520820
:100F5000C6005308C7000130C435C50DC60DC70D06
:100F6000890BAC2F47084604450444040319C02FDD
:100F7000BF30D3008030D2000030D1000030D0002C
:100F80005308C3005208C2005108C1005008C000F5
:100F90000800F200F301F30A23003C19FE2F720847
:100FA000F1007108B600BC103C153C100E30F10089
:100FB0007108BA00F430B4000130B500BC1524301B
:100FC000A0001E30A100AC012430A2001E30A300FE
:100FD000AD012430A4001E30A500AE012430A600CF
:100FE0001E30A700AF010230A8000030A900B001F8
:100FF0009E31292687319F310D27F30173080800A0
:10100000003071052000A00000307205A100803082
:101010007305A2007F307405A30023082204210475
:101020002004031D1B280030F4000030F3000030C2
:10103000F2000030F10000307505A00000307605A8
:10104000A10080307705A2007F307805A300230837
:10105000220421042004031D35280030F80000304C
:10106000F7000030F6000030F50078087406031D24
:10107000432877087306031D432876087206031D6C
:101080004328750871060319472803100800031444
:1010900008002000A0002008031DF41F5F2871092C
:1010A000A2007209A3007309A4007409A500A20A92
:1010B0000319A30A0319A40A0319A50A67287408C7
:1010C000A5007308A4007208A3007108A2007408A8
:1010D000730472047104031D76280030F40000309C
:1010E000F3000030F2000030F10008009630F50007
:1010F0007508A100FE30250503199D280130F50073
:101100007508A1070130A536A40CA30CA20C890B0D
:1011100083287A280130F5007508A1070130A2075D
:101120000030A33D0030A43D0030A53D0130A53680
:10113000A40CA30CA20C890B9728FF3025050319DA
:10114000AF288A2802302102031CB1280130A102F5
:101150000130A235A30DA40DA50D890BA928A41F4C
:10116000A2282118BB28FF30A205FF30A3057F303D
:10117000A405FF30A5050310A10C2108F500F60118
:10118000F701F8011830F535F60DF70DF80D890B5C
:10119000C3287508A2047608A3047708A404780875
:1011A000A5042008031DF41FD628A5172508F40060
:1011B0002408F3002308F2002208F10008002000B0
:1011C0002D088039AE002E08B7002D35AE002E0850
:1011D000BE00AC1B3E143E080319FC283E0A031D4A
:1011E000F9280030AD000030AC000030AB0000301A
:1011F000AA00AC17AD0104290030AD000030AC00EE
:101200000030AB000030AA0029088039AE002E085B
:10121000B7062935AE002E08BF00A81B3F143F08B3
:10122000031920293F0A031D1D290030A9000030A1
:10123000A8000030A7000030A600A817A90128299F
:101240000030A9000030A8000030A7000030A60040
:101250002908280427042604031D47290030AD006F
:101260000030AC000030AB000030AA008030AC048D
:101270007F30AD043708AE002E08AD042D08A9005C
:101280002C08A8002B08A7002A08A60008003E0882
:10129000031D53290030A9000030A8000030A7002A
:1012A0000030A60008003E08AE00AF012F08B100D4
:1012B0003F082E02B000031CB10330087F3EB80087
:1012C0000030313DB9002D08B6002C08B5002B08C0
:1012D000B4002A08B3000030AD000030AC0000308C
:1012E000AB000030AA000030BD000030BC00003070
:1012F000BB000030BA00BF011A303F020318B82902
:101300003F0803199A290130B335B40DB50DB60D58
:10131000890B84290130AA35AB0DAC0DAD0D890BBD
:101320008B29BD1B2A140130BA35BB0DBC0DBD0D78
:10133000890B942929083602031DA829280835029B
:10134000031DA82927083402031DA82926083302F3
:10135000031CB3293D172608B3022708B43B28080D
:10136000B53B2908B63B0130AE002E08BF077C29EB
:101370003608350434043304031D3A14AC1BD52954
:101380000130AA35AB0DAC0DAD0D890BC129BD1BCC
:101390002A140130BA35BB0DBC0DBD0D890BCA290D
:1013A000FF30B807FF30B93DBE29BF01BD1FEE2990
:1013B000FF303A05AE00FF303B05AF00FF303C0583
:1013C000B0007F303D05B100310830042F042E04F9
:1013D00003192A18EC29EE29BF01BF0A3F08031997
:1013E000172A0130AA070030AB3D0030AC3D003079
:1013F000AD3D2D1C172A2A08AE002B08AF002C0883
:10140000B0002D08B1000130B200B137B00CAF0C04
:10141000AE0CB20B052A3108AD003008AC002F0825
:10142000AB002E08AA000130B8070030B93D3908DA
:10143000803AAE0080302E02031D202AFF30380291
:10144000031C2F2AFF302000B8000030B900003004
:10145000AD000030AC000030AB000030AA0020002E
:101460003908803AAE0080302E02031D392A01303F
:1014700038020318472A2000B801B9010030AD0036
:101480000030AC000030AB000030AA00B7012000F3
:101490003808AE002E08BE003E1C502AAC17542A55
:1014A0007F30AE002E08AC053E36AE002E08AD00F3
:1014B0003A292000EF005D0886008701403FDF00E9
:1014C000413FE0005F088400600885001200253A73
:1014D000031DCF2B5D088600870101308107413154
:1014E0000318810A2200D601D701DA01DB01FF309F
:1014F000D800FF30D90020005D0886008701403FFA
:10150000DF00413FE0005F088400600885000008BC
:10151000E100E2016108F7006208F8009031DC2088
:101520008A3177082000E3006308E70067080319A1
:10153000D62A5D0886008701403FDF00413FE0007A
:1015400001305F07840060080318600A8500000806
:10155000E100E2016108F7006208F8009031DC2048
:101560008A3177082000E3006308E800680803195F
:10157000D62A5D0886008701403FDF00413FE0003A
:1015800002305F07840060080318600A85000008C5
:10159000E100E2016108F7006208F8009031DC2008
:1015A0008A3177082000E3006308E90066306706A7
:1015B000031D162B5D0886008701403FDF00413F79
:1015C000E0005F088400600885000008E100610811
:1015D000EE005D0886008701013081074131031864
:1015E000810A5E08860087010108840085010430B5
:1015F0008107003FEA00013FEB00023FEC00033FA0
:10160000ED006D08D7006C08D6006B08D5006A089D
:10161000D4006E08DF005F08D8006F0880315D20BD
:1016200020005508DE005408DD0008003130F100CC
:10163000A030F2000230F3000030F4006730943143
:1016400010248A3171087204031D9C2B20005D0850
:1016500086008701403FDF00413FE00001305F0727
:10166000840060080318600A85000008E100610832
:10167000EE005D0886008701403FDF00413FE0004B
:101680005F088400600885000008BF3EE100FF306D
:1016900003180030E200003062021A3003196102C0
:1016A0000318542B0130552B0030E300E40163088C
:1016B000E5006408E6006508660403196F2B5E0800
:1016C0008600870101088400850104308107003FFE
:1016D000EA00013FEB00023FEC00033F7E2B5E0877
:1016E0008600870101088400850104308107003FDE
:1016F000EA00013FEB00023FEC00033FED005D0814
:10170000860087010230810741310318810A6D0884
:10171000D7006C08D6006B08D5006A08D4006E08A4
:10172000DF005F08D8006F0880315D202000550879
:10173000DE005408DD00080020005D0886008701F7
:10174000403FDF00413FE0005F0884006008850003
:101750001200253A031DC42B5D0886008701013065
:10176000810741310318810A2530F4000030F5006B
:101770006F08DF005F08F6009231912201302000EF
:10178000DD000030DE0008005D08860087010130C2
:10179000810741310318810ADD01DE0108005D087F
:1017A00086008701403FDF00413FE0005F08840082
:1017B000600885000008E100E2016108F4006208A9
:1017C000F5006F08E3006308F600923191228A3138
:1017D00020005D0886008701013081074131031830
:1017E000810ABE2B740880392000A0002008A800C0
:1017F0007435A0002008AA00F31B2A142A08031934
:101800000F2C2A0A031D0C2C0030F4000030F300CA
:101810000030F2000030F100F317F401172C003013
:10182000F4000030F3000030F2000030F1007808DE
:101830008039A0002008A90029082806031D2817C0
:101840007835A0002008A900F71B291429080319DE
:10185000372C290A031D342C0030F8000030F70023
:101860000030F6000030F500F717F8013F2C00308B
:10187000F8000030F7000030F6000030F5002A08CC
:1018800029020318852C281F492C8030A00020082D
:10189000A8062A08A0002008AB002908A0002008FC
:1018A000AA002B08A0002008A9007108A0002008A9
:1018B000AB007508A0002008F1002B08A00020084C
:1018C000F5007208A0002008AB007608A0002008F0
:1018D000F2002B08A0002008F6007308A0002008E2
:1018E000AB007708A0002008F3002B08A000200818
:1018F000F7007408A0002008AB007808A0002008BA
:10190000F4002B08A0002008F800AB012908A00073
:10191000A1012108A3002A082002A200031CA3039E
:101920002308803AA40080302402031D992C1A3029
:101930002202031CCD2C7408730472047104031971
:10194000A32C0130A42C00302000A0002008AB0004
:101950000030F4000030F3000030F2000030F100FD
:101960002908A0002008AA00D22C2B1CBD2C2B3645
:101970000138A0002008AB00BF2C0310AB0C71187D
:10198000AB170130A000F437F30CF20CF10CA00BF4
:10199000C32C0130A0002008AA07200029082A0231
:1019A000031CB52C281B032D2A08031DE02C003036
:1019B000F4000030F3000030F2000030F1000800C5
:1019C0007508F1077608F23D7708F33D7808F43D95
:1019D000741C7D2D2B1CF22C2B360138A000200806
:1019E000AB00F42C0310AB0C7118AB170130A00046
:1019F000F437F30CF20CF10CA00BF82C0130A00022
:101A00002008AA077D2D7408803AA0007808803A43
:101A10002002031D152D77087302031D152D76086E
:101A20007202031D152D7508710203184D2DFF302C
:101A3000A000FF30A100FF30A200FF30A30071081A
:101A40007502A4007208763BA5007308773BA600D8
:101A50007408783BA7002408A0072508A13D2608A4
:101A6000A23D2708A33D2308F4002208F300210823
:101A7000F2002008F1008030A0002008A806AB0981
:101A8000AB0A2B08031D552D0130F1070030F23D44
:101A90000030F33D0030F43D552D7508F102760815
:101AA000F23B7708F33B7808F43B74087304720444
:101AB0007104031D7B2D2B08031D7B2D0030F400CA
:101AC0000030F3000030F2000030F1000800013077
:101AD000F135F20DF30DF40D890B682DAB1B71146C
:101AE0002B1C742D0314752D0310AB0D2A0803193C
:101AF0007B2D0130AA02F31F672DA901AB1F882D92
:101B00002B087F3903197118862D882DA901A90A80
:101B100029080319B42D0130F1070030F23D0030DF
:101B2000F33D0030F43D741CB42D7108A000720820
:101B3000A1007308A2007408A3000130A400A33719
:101B4000A20CA10CA00CA40B9F2D2308F4002208CA
:101B5000F3002108F2002008F1002A0A0319B42D2D
:101B60000130A0002008AA072A0A031D2A08031D25
:101B7000C42D0030F4000030F3000030F2000030DB
:101B8000F1002A080319A8012A1CC82DF317CC2D2F
:101B90007F30A0002008F3052A36A0002008F400BA
:101BA000A81F0800F4170800200023088039A800A7
:101BB0002808AD002335A8002808B300A21B331461
:101BC00033080319F02D330A031DEE2D0030A30056
:101BD0000030A2000030A1000030A000A217F82DB4
:101BE0000030A3000030A2000030A1000030A000AF
:101BF00027088039A8002808AD062735A80028083E
:101C0000B200A61B321432080319132E320A031D28
:101C1000112E0030A7000030A6000030A5000030D3
:101C2000A400A6171B2E0030A7000030A60000302D
:101C3000A5000030A4003208031D3308031D292E1F
:101C40000030A3000030A2000030A1000030A0004E
:101C500008002008A8002808F100260890315F201D
:101C60008D3172082000B9007108B8003808A8004A
:101C7000A901AA01AB012B08B1002A08B00029086C
:101C8000AF002808AE003908A800A901AA01AB01DD
:101C90002B08B7002A08B6002908B5002808B400A8
:101CA0002108A8002808F100250890315F208D3117
:101CB00072082000B9007108B8003808A800A9010E
:101CC000AA01AB012808AE072908AF3D2A08B03D9C
:101CD0002B08B13D3908A800A901AA01AB012808C9
:101CE000B4072908B53D2A08B63D2B08B73D2208A0
:101CF000A8002808F100240890315F208D31720877
:101D00002000B9007108B8003808A800A901AA018C
:101D1000AB012808AE072908AF3D2A08B03D2B08C3
:101D2000B13D3908A800A901AA01AB012808B407F0
:101D30002908B53D2A08B63D2B08B73D0830AE3519
:101D4000AF0DB00DB10D890B9F2E2108A8002808FA
:101D5000F100240890315F208D3172082000B90015
:101D60007108B8003808AE073908AF3D0030B03D03
:101D7000B13D2008A8002808F100250890315F2017
:101D80008D3172082000B9007108B8003808AE071C
:101D90003908AF3D0030B03DB13D0830AE35AF0D34
:101DA000B00DB10D890BCE2E2008A8002808F10037
:101DB000240890315F208D3172082000B90071082D
:101DC000B8003808AE073908AF3D0030B03DB13D2E
:101DD0002108A8002808F100260890315F208D31E5
:101DE00072082000B9007108B8003808B407390833
:101DF000B53D0030B63DB73D2208A8002808F100E7
:101E0000250890315F208D3172082000B9007108DB
:101E1000B8003808B4073908B53D0030B63DB73DC5
:101E20002208A8002808F100260890315F208D3193
:101E300072082000B9007108B8003808A8003908F5
:101E4000A900AA01AB010830A835A90DAA0DAB0D58
:101E5000890B242F2808B4072908B53D2A08B63D68
:101E60002B08B73D2E08A8002F08A9003008AA00AB
:101E70003108AB001830AB36AA0CA90CA80C890BA2
:101E80003B2F2808B4072908B53D2A08B63D2B0882
:101E9000B73D0830AE35AF0DB00DB10D890B4A2FEF
:101EA00033083207A800A901A90D2808823EB8000E
:101EB000FF30293DB900B61B722F0130B435B50D86
:101EC000B60DB70D890B5E2FB11B34140130AE3542
:101ED000AF0DB00DB10D890B672FFF30B807FF3084
:101EE000B93D5B2FB201B11F8B2FFF302E05A8002B
:101EF000FF302F05A900FF303005AA007F303105E3
:101F0000AB002B082A042904280403193418892F4C
:101F10008B2FB201B20A32080319B42F0130B40773
:101F20000030B53D0030B63D0030B73D371CB42F12
:101F30003408A8003508A9003608AA003708AB0005
:101F40000130AC00AB37AA0CA90CA80CAC0BA22F2B
:101F50002B08B7002A08B6002908B5002808B400E5
:101F60000130B8070030B93D3908803AA800803008
:101F70002802031DBD2FFF303802031CC92F7F30FC
:101F80002000B7008030B6000030B5000030B4004B
:101F9000F32F20003908803AA80080302802031D62
:101FA000D32F013038020318E02F00302000B70093
:101FB0000030B6000030B5000030B400AD01F32FA2
:101FC00020003808A8002808B300FF30B405FF300F
:101FD000B5057F30B6050030B7053318B617333670
:101FE000A8002808B7002D08A8002808B70437085B
:101FF000A3003608A2003508A1003408A00008009C
:102000000130F1000030F2007A089F313C27903116
:102010000030F600F700F8019F3124270430080053
:10202000F5007508F3007308F400750886000230A7
:1020300087000108031921280130F3007308F50710
:10204000152874087502F100F201F11BF203080073
:10205000F201F20A2300BC183F283C11FF30F100C6
:102060007108B6009E31292690319E312F2690317D
:102070009E312C2623003B08F1007108F200720803
:1020800008002000A600A701A70A2300BC185C28AE
:10209000BC142000A7012608031952282300BA0106
:1020A000BA0A57280230FB007B082300BA009E3191
:1020B000322690319F310327200027080800F900BD
:1020C000F501F6017108F300F4017308F7007408D4
:1020D000F800791C6F287708F5077808F63D01307D
:1020E000F735F80D890B70280310F90C7908031DDA
:1020F00069287608F2007508F10008008030200099
:10210000BD064108F4004008F3003F08F2003E0815
:10211000F1003D08F8003C08F7003B08F6003A08DB
:10212000F5008B31F22374082000BD007308BC0059
:102130007208BB007108BA000800F8007208F600C7
:102140007108F5007808F3007308F7007708860037
:1021500002308700F70A7608F4007508F300F50AE4
:102160000319F60A73088400740885000008C03F4C
:10217000890803190800A628083022006502031800
:10218000D92821006E08C53E86000130870001086D
:1021900023009A000130F00070082100EE0708309B
:1021A0006E020318EE010130F00070082200E5070E
:1021B00008002100111208007708BF3E2000A0008F
:1021C000FF30783DA100003021021A3003192002AF
:1021D0000318EC280130ED280030A200A3012208EA
:1021E000F9002308FA0079087A040319080020305E
:1021F0007704F70000307804F8000800F2002200AD
:1022000065080319FF282100111A0A297208230002
:102210009A001F2911127208F1006F08C53E86004E
:1022200001308700710881000130F1007108EF076B
:1022300008306F020318EF0101302200E50221008F
:10224000111608002000A700A501A60125082707F0
:10225000A10021088600023087000108A2002208A0
:10226000A4002408031908002408A100A2012108E1
:10227000F4002208F5002008A3002308F60092319C
:102280009122913101302000A5070030A63D26297A
:10229000F50071087204031960297535A03E8600A7
:1022A000013087007108C03F7208C13F7308F40015
:1022B0007508AC3E86000130870074088100080074
:1022C0007535A03E8600013087002430C03F1E30A7
:1022D000C13F7508AC3E86000130870081010800CF
:1022E0009E312926913123003C1C82299E31B12642
:1022F0009131003A031982290F302000A3002308EE
:102300002300BA0023003A082000A300A401A3354B
:10231000A40D0030230784009830243D8500013F40
:102320008A00003F0A0091312000A5002508230003
:10233000BA0008002300BC15A7299E315F260800BB
:102340009E314126033008009E31632608002C0888
:102350002000A0002008FA00230021088A0020089D
:102360000A0091312000A100A2012208003A0319BD
:10237000BA29A4292108013A0319A429033A031907
:102380009D29013A03199D29073A0319A029A42977
:10239000080023003C1002302000A0002008230089
:1023A000BB00D8299E315F2608009E3163260800B5
:1023B0002E082000A0002008FA000430A03E86006D
:1023C00001308700413F8A00403F0A0091312000E0
:1023D000A100A2012208003A0319EF29D5292108FA
:1023E000023A0319D229013A0319D229D529080042
:1023F0002000AA00AB0120002A088731C9279131AB
:10240000003A0319FB295A30F6001F30F7002B3031
:102410002000A9002908F8009F31242791310130BC
:10242000F1000030F20028309F313C27913100301C
:10243000F600F700F8019F31302791319E31772661
:102440009131903128209131013A0319212A20003D
:102450002B0808002100DE005A08E0005908DF00C0
:102460002200D401D50121005F08840060088500A6
:1024700012000319542ADF30DC005C082000DD0064
:1024800021005B08DD005D082000DE0021005E0801
:102490008A315922923120005D082200D4072000A1
:1024A0005E082200D53D332A220055082100DA00BB
:1024B000220054082100D90008007C08443E860010
:1024C00001308700810123001D1D712A7C08443ED4
:1024D00086000130870081145A088A0059080A00D2
:1024E000923123009D1C7F2A7C08443E86000130E7
:1024F0008700011558088A0057080A0092317C08A5
:10250000443E860001308700010803198E2A23000B
:1025100056088A0055080A00923108009F31D027DA
:1025200008007608031D7608031D9A2A74089E3158
:102530008E2608007608033E8600870116000104F7
:102540000319BD2A7608033E86008701403FF70045
:10255000413FF800760A86008701403FF900413F7D
:10256000FA007A08803AFB007808803A7B02031D63
:10257000BB2A7708790203180800760A86008701CB
:102580000130810741310318810A080022008C01C3
:102590008D018E01373021008C0070308D00B730F6
:1025A0008E00E73023008E0080308D0037308C00A5
:1025B00024008D018C018E0125008C018D018E017E
:1025C000373026008C00F0308D00FF308E003F3019
:1025D00027008C00F0308D00FF308E000E303C0064
:1025E000A4000D30A00014303D009F0018309D0065
:1025F00019309C000230A6000C303C00A1000800FD
:1026000022006D08C3006C08C2006B08C1006A0894
:10261000C0009F31E82793319E31442693314430E6
:102620002300D4007D30D3004830D2009330D10055
:102630004130D000C630CF001430CE007B30CD000A
:102640008B170B17A03086000230870029308400DA
:102650000130850017302100EB0016001A00EB0B4B
:102660002D2B9631AA26933129302100EC0096308B
:10267000EB007F30890B3A2BEB0B3A2BEC0B3A2B10
:10268000312B210091125D30F1001230F2009E31A9
:10269000A526933121001112BC30F1001030F20058
:1026A0009E31AB269331083023009F0090309D006F
:1026B00024309E0040309B0003309C002330F1000A
:1026C0001E30F2009E31992693314730F1001E30C2
:1026D000F2009E319F2693312630F1001E30F20029
:1026E0009E3193262200DF012100EF01EE01083028
:1026F000F30073082200E500FC012100ED01220037
:10270000E001210091160800F701F41F8E2BF30958
:10271000F409F30A0319F40AF701F70AF21F952BDB
:10272000F109F209F10A0319F20A71087204031996
:10273000BC2BF601F60AF21BA72B0130F135F20D86
:10274000890B9E2B0130F5007508F6079B2B72084C
:102750007402031DAD2B71087302031CB32B7108A7
:10276000F3027208F43B0130F236F10C890BB42B02
:102770000130F602031DA72B77080319C42BF309B8
:10278000F409F30A0319F40A7408F2007308F1005B
:1027900008009E313E2693312000A0002300370818
:1027A000860087012000200881000130A000200859
:1027B0002300B7070130B8020030B93B38083904AC
:1027C0000319E62B9E31532605300800BC15EE2B6D
:1027D0009E316F2608009E316B2608002C082000D1
:1027E000A0002008FA00230021088A0020080A001F
:1027F00093312000A100A2012208003A0319012C04
:10280000EB2B2108013A0319EB2B033A0319E82BB0
:10281000013A0319E82B073A0319EB2BEB2B0800BD
:10282000F6007608F5007508F9007208F8007108DE
:10283000F7000130F3020030F43B730A031D4A2C09
:10284000740A031D4A2CF101F20108007708840084
:102850007808850012000319502C730874040319BA
:10286000502C77088400780885000008F500790866
:102870008600870101087506031D502C0130F50004
:102880007508F9070130F7070030F83D0130F30211
:102890000030F43B7908860087010108031D262CCF
:1028A0007908860087017708840078088500000889
:1028B0000102F100F201031CF20308002000B00045
:1028C00022005A1C6C2C20003008AB002B08A00002
:1028D00028089131222194312000AA1B742C2A0847
:1028E000AF002908AE00762CAE01AF01AC01AD01FE
:1028F0002D08803AAB002F08803A2B02031D822C52
:102900002E082C020318962C2030F4000030F5001D
:1029100020003008AB002B08F60092319122943150
:1029200001302000AC070030AD3D782C22005A1851
:10293000A22C20003008AB002B08A0002808913101
:1029400022219431200028089031102020002E08E8
:102950007107A8002F08723DA9000800F701F21FB7
:10296000B82CF109F209F10A0319F20AF701F70A82
:10297000F41FC32CF309F409F30A0319F40A013014
:10298000F5007508F706F801F901710872040319DA
:10299000F22CF601F60AF21BD72C0130F135F20DBC
:1029A000890BCE2C0130F5007508F607CB2C0130D1
:1029B000F835F90D890BD82C72087402031DE22C2E
:1029C00071087302031CE92C7108F3027208F43BCE
:1029D00078140130F236F10C890BEA2C0130F60242
:1029E000031DD72C77080319FA2CF809F909F80AFE
:1029F0000319F90A7908F2007808F10008009E31FD
:102A0000B1269431003A031D0F2D352D9E315726E6
:102A100008009E315B2608009E31632608002300D3
:102A20002F082000A0002008FA000630A03E8600F3
:102A300001308700413F8A00403F0A009531200065
:102A4000A100A2012208003A0319272D0C2D21080C
:102A5000013A03190C2D033A0319062D013A031903
:102A6000092D073A03190C2D0C2D23003C101730AB
:102A7000A03E860001308700403F84008501810A26
:102A800000089E317F26943101302300B8020030C7
:102A9000B93B38083904031D4F2D063008000330B8
:102AA00008000310730D740DF5007508FB007B081A
:102AB000031D632D0030F4000030F3000030F200FD
:102AC0000030F10008007108F5007208F600730884
:102AD000F7007408F8001F30F836F70CF60CF50C08
:102AE000890B6C2D7508F9007908FA00F317FF308F
:102AF000F105FF30F205FF30F3050030F4059630A4
:102B0000FB02FB1F962D7B08803A973E031C5A2D33
:102B10000130F436F30CF20CF10C890B892D0130E5
:102B2000F5007508FB070319A72D882D20307B02BF
:102B300003185A2D7B080319A72D0130F135F20D2A
:102B4000F30DF40D890B9E2D0130FB029A2D7A08AE
:102B500003190800F109F209F309F409F10A03194C
:102B6000F20A0319F30A0319F40A080022005308B1
:102B70002000A500220052082000A40022005108D5
:102B80002000A300220050082000A2007408A50025
:102B90007308A4007208A3007108A2002208F500BF
:102BA0002308F6002408F7002508F8001730F83647
:102BB000F70CF60CF50C890BD72DFF307505A0002E
:102BC00000307605A10020082104031D062E2208EE
:102BD000F5002308F6002408F7002508F800013066
:102BE000F535F60DF70DF80D890BF02D7808770403
:102BF00076047504031D012E0230F1000030F2004E
:102C000008000330F1000030F2000800200A21041F
:102C1000031D292E2208F5002308F6002408F700DA
:102C20002508F8000930F535F60DF70DF80D890B7C
:102C3000132E7808770476047504031D212E0130C5
:102C4000222E0030F900FA017908F1007A08F2002A
:102C500008000430F1000030F200080000302000CD
:102C60003A05C20000303B05C30080303C05C4007B
:102C70007F303D05C5004508440443044204031D5C
:102C8000492E0030BD000030BC000030BB000030D9
:102C9000BA0000303E05C20000303F05C30080305E
:102CA0004005C4007F304105C50045084404430485
:102CB0004204031D632E0030C1000030C00000300C
:102CC000BF000030BE00BD1F7D2E0030C2000030AE
:102CD000C3000030C4008030C5003A08C2023B087F
:102CE000C33B3C08C43B3D08C53B4508BD00440808
:102CF000BC004308BB004208BA00C11F972E003039
:102D0000C2000030C3000030C4008030C5003E085F
:102D1000C2023F08C33B4008C43B4108C53B4508CD
:102D2000C1004408C0004308BF004208BE00803014
:102D3000BD068030C10641083D02031D0800400861
:102D40003C02031D08003F083B02031D08003E082B
:102D50003A02080000302200E9000030E8000030AC
:102D6000E7000030E6002A30A00020082000A8007C
:102D70005D309131F82196312200A100A201A3011A
:102D8000A4012408E9002308E8002208E70021083C
:102D9000E6002930A00020082000A8005D30913115
:102DA000F82196312200A100A201A301A401660826
:102DB000A5006708A6006808A7006908A8000830F1
:102DC000A535A60DA70DA80D890BE02E2508A10796
:102DD0002608A23D2708A33D2808A43D2408E900B1
:102DE0002308E8002208E7002108E6002830A000B8
:102DF00020082000A8005D309131F8219631220092
:102E0000A100A201A301A4016608A5006708A6000D
:102E10006808A7006908A8000830A535A60DA70D09
:102E2000A80D890B0D2F2508A1072608A23D27080C
:102E3000A33D2808A43D2408E9002308E80022084F
:102E4000E7002108E600E81F392F00306604A000E3
:102E500000306704A10000306804A200FF3069045C
:102E6000A3002308E9002208E8002108E700200861
:102E7000E60045302000A9008030A8000030A700FF
:102E80000030A60022006908F4006808F300670813
:102E9000F2006608F100003088314920963174084C
:102EA0002000AD007308AC007208AB007108AA00E6
:102EB0008831DF209631200029082300D40020002B
:102EC00028082300D300200027082300D200200078
:102ED00026082300D10015302200A1004B30A000AD
:102EE000BE30890B712FA00B712FA10B712F000029
:102EF0002200DC01DD012C30A00020082000A80009
:102F00005D309131F82196312200A100A201210803
:102F1000DC002208DD002B30A00020082000A800E3
:102F20005D309131F82196312200A100A2015C08A8
:102F3000A400A30121082307DC002208243DDD00B2
:102F400042302000A900C830A8000030A70000309F
:102F5000A60022005C08F1005D08F200F301F40114
:102F6000003088314920963174082000AD00730884
:102F7000AC007208AB007108AA008831DF209631DE
:102F8000200029082300D000200028082300CF00BB
:102F9000200027082300CE00200026082300CD00B3
:102FA00012302100E100A030E2002300540821008B
:102FB000E600230053082100E50023005208210009
:102FC000E400230051082100E3009F317A27963165
:102FD00000302100E100A030E20023005008210071
:102FE000E60023004F082100E50023004E082100E1
:102FF000E40023004D082100E3009F317A270800F8
:1030000084341E34E0341E34C9341E34FF34143486
:10301000C9341334B7341E349A34113457341E343F
:103020005B341E345F341E3463341E3467341E3404
:103030006B341E346F341E3489341E34C934113459
:103C46000800013008009F31D0270800200091119C
:103C56000800240095120800210091110800240094
:103C660016140800240096140800240016150800EF
:103C7600240096150800240011080800200091155C
:103C860008002C009901080023001D121D160800CB
:103C96001630210097000800240096161616080014
:103CA60024009612161608009E31352601300800AB
:103CB6009E313526023008009E3135260130080037
:103CC6009E313826003008009E3153260530080004
:103CD6009E314F260A3008009E314F2609300800D3
:103CE600200091190800732E003090314120080001
:103CF600FF340034FF340034F100710824009100D1
:103D060008002300BC10BB010E3008002300BC10C5
:103D1600BB010E300800F30073089031FE20080046
:103D260072082300D6007108D50008007208230027
:103D3600DA007108D900080072082300D80071085B
:103D4600D700080072082200E2007108E1000800AE
:103D560072082200E4007108E30008002400160E31
:103D6600890C890C0139080023003C109E313B2642
:103D760004300800640080010131890BBE2E003436
:103D8600FE0012001E00FE0BC42E003423003C145D
:103D960036359E317F2603300800320091019201AC
:103DA60093019401950196010800D13020009E00F0
:103DB6009D01911005309F00080023003C14031458
:103DC600360D9E317F260530080024009401083008
:103DD600950096014F30920095120800603032002F
:103DE60099009B019D0107309F009E010800740801
:103DF600730472047104031908008030F406080085
:103E06002300BC1C08009E3173269F31913170211E
:103E16009F31032F2400951A08009401083095005D
:103E260096014F3092009516080080302C009900BC
:103E360068309800C03097001F08FC3901389F0091
:103E460008007708F2007608F1007808F90079088A
:103E5600F30000309131482108007708F200760817
:103E6600F1007808F9007908F30002309131482111
:103E76000800F4002300BC1D08007408F300730852
:103E8600B7007208B9007108B800BC11080002300A
:103E9600F1000030F2007A089F313C279F31003054
:103EA600F600F700F8019F3124270430080001309E
:103EB600F1000030F2007A089F313C279F31003034
:103EC600F600F700F8019F3124270230080002307F
:103ED600F1000030F2007A089F313C279F31003014
:103EE600F600F700F8019F31242702300800E3307E
:103EF6002100E7006708EA006208DA006108D900D5
:103F0600EA30E7006708DB00003092312A22080019
:103F16007A0886008701403FF100413FF2007A08A7
:103F2600023E8600870101089F313C279F31003001
:103F3600F600F700F8019F312427023008007108C7
:103F4600BF3EF300FF30723DF400003074021A30B9
:103F5600031973020318B12F0130B22F0030F50098
:103F6600F6017508F1007608F2000800FF34003407
:103F7600FF3400341634483445344C344C344F3412
:103F86002034533445344E3453344F34523453343E
:103F96001734FF340034FF34003423001908F000CE
:103FA6007C08BD3E86000130870070088100013024
:103FB600F0007008FC0708307C020318FC01013091
:103FC600F00070082200E00708009E31D0269F31DD
:103FD6009E31E8269F319231C6229F319E31F126CD
:103FE6009F319E314B269F319F3118279F319E313D
:103FF600D8269F31933141230800543465346D34FB
:1040060070346534723461347434753472346534A2
:1040160020343A342034253466340A34003450349B
:1040260072346534733473347534723465342034C1
:104036003A342034253466340A34003449344E3454
:10404600463400344E3441344E34003469346E34D0
:10405600663400346E3461346E3400346C34663445
:02406600003424
:020000040001F9
:08000E00ECFFF3FFFFFFFFFF11
:00000001FF
