:020000040000FA
:0400000080312C28F7
:100008007E1480310B1F09280A282A282100111E76
:100018000E280F281A282000111E132814281A2821
:100028006A088A0069080A0080312A282100911E7E
:100038001E281F282A282000911E232824282A2821
:1000480068088A0067080A0080312A287E1009009B
:1000580080312E28A7308400823085006C308600DD
:1000680000308700043082317D22803124308400C2
:1000780082308500A030860000308700173082313A
:100088007D22803170308400003085000930823153
:10009800832280312030840000308500293082316D
:1000A80083228031B73084000030850010308231DF
:1000B800832280317E1020008031622820006F0862
:1000C800E4006E08E3006D08E2006C08E10081318D
:1000D800F22180318231B722803144302100CE00B4
:1000E8007D30CD004830CC009330CB004130CA0081
:1000F800C630C9001430C8007B30C7008B170B17F7
:10010800A0308600003087004A3084000030850027
:1001180017302000C90016001A00C90B8F281730A5
:10012800C9004908E500FF3021008E0020000E1E9E
:100138009E289F28A028972822008E15BF302100CE
:100148008E002000E601B22866084A3E8031BD20B4
:10015800803101302000C9004908E60765086602B9
:10016800031CB728B828A82822008E1197288031A8
:100178002C28FC008231472280314630FA00423078
:10018800890BC428FA0BC4280000FB017C088600F0
:1001980087010108FA007B0AD228FA36890BD12890
:1001A8007A1CD728D828DC28823151228031DF28D0
:1001B8008231472280314630FA004230890BE228EA
:1001C800FA0BE22800000130FA007A08FB07083031
:1001D8007B02031CF028F128CA2882315122803181
:1001E8004630FA004230890BF728FA0BF72800004E
:1001F8000800210091127730FA000130FB008231AB
:100208008F22803121001112B030FA000130FB003A
:10021800823189228031083023009F0090309D0070
:1002280024309E0004309B000D309C00BA30FA0048
:100238000230FB0082319B228031AF30FA0002305D
:10024800FB00823195228031B330FA000230FB0086
:100258008231A1228031F301F801F7010830FC0056
:100268007C082000EB00F601F501F401210091164D
:10027800080022008C018D018E01373021008C008E
:1002880070308D00B7308E00E73023008E0080304C
:100298008D0037308C0024008D018C018E012500E3
:1002A8008C018D018E01373026008C00F0308D00D6
:1002B800FF308E003F3027008C00F0308D00FF307B
:1002C8008E000E303C00A4000D30A00014303D001C
:1002D8009F0018309D0019309C000230A6000C3099
:1002E8003C00A100080076083D3E86008701810198
:1002F80023001D1D802981298C2976083D3E860012
:1003080087018114210054088A0053080A008131AA
:1003180023009D1C902991299C2976083D3E860042
:1003280087010115210052088A0051080A0081310D
:1003380076083D3E8600870101080319A429A529EE
:10034800AC29210050088A004F080A008131AF29E2
:1003580082310B2281310800083020006B0203181B
:10036800B629B729CF297708BF3E8600870101083B
:1003780023009A000130F9007908F707083077025E
:10038800031CC729C829C929F7010130F9007908D0
:100398002000EB07D1292100111208000034003495
:1003A80000340034003400340034003400340034A5
:1003B8000034003400340034003400340034003495
:1003C8000034003400340034003400340034003485
:1003D8000034003400340034003400348231752293
:1003E800813182316422813181313D2181318231F3
:1003F8005B2281318231AB22813182313B228131D2
:1004080082316D2281318031FD2081310800230045
:100418001908F9007608B73E860087017908810037
:100428000130F9007908F60708307602031C1D2A06
:100438001E2A1F2AF6010130F9007908F40708007E
:10044800FF340034FF3400341634483445344C3417
:100458004C344F342034533445344E3453344F34B1
:10046800523453341734FF340034FF3400348030AE
:100478002C00990034309800403097001F08FC3950
:1004880001389F00080080302C009900743020004B
:100498009E003A302C009800080080302C0099000B
:1004A800683020009E0034302C009800080060302E
:1004B800320099009B019D0106309F009E010800B3
:1004C8002400940108309500960127309200951277
:1004D8000800683020009E009D01911005309F00A3
:1004E800080032009101920193019401950196014F
:1004F8000800FE0012001E00FE0B7E2A0034640075
:1005080080010131890B842A00347B082000EA002D
:100518007A08E90008007B082000E8007A08E7006C
:1005280008007B082100D2007A08D10008007B0867
:100538002100D4007A08D30008007B082100D000ED
:100548007A08CF000800FF340034FF340034163036
:1005580021009700080023001D121D160800823193
:0E0568000B22823108002C00990108000800C7
:020000040001F9
:08000E00ECFFF3FFFFFFFFFF11
:00000001FF
