:020000040000FA
:1000000080312328053008007E1480310B1F212801
:100010002100111E15282000111E152822006D0830
:100020008A006C080A00803121282100911E2128B5
:100030002000911E2128230065088A0064080A0018
:1000400080317E10090080312528363084009D30B3
:100050008500683086000130870004309D317925A5
:100060008031823084009E308500A03086000230CE
:10007000870017309D3179258031FC012100ED0189
:10008000EE01EF01473084000130850021309D31C1
:1000900073258031A0308400013085003E309D31D1
:1000A00073258031203084000230850050309D312E
:1000B00073257E102000883116282100BC00BA016B
:1000C000BB01200057082100D00020005608210065
:1000D000CF00200055082100CE0020005408210048
:1000E000CD0050082000BD0021004F082000BC00BA
:1000F00021004E082000BB0021004D082000BA005E
:100100000030C1000030C0000030BF000030BE0031
:100110009531742580310318A62801302100BA00DA
:100120000030BB005008F4004F08F3004E08F20006
:100130004D08F1009D31B025803174082100D000B8
:100140007308CF007208CE007108CD002100D301E2
:10015000D40122005A082100C100220059082100C0
:10016000C0003A083B04031DB82822005D1DD228B8
:1001700021003A083B04031DBF282B30C0282D3036
:10018000A4000030A50024082000D900590824004C
:10019000A00001302100D3070030D43DFF30C0075C
:1001A000FF30C13D21005008F4004F08F3004E0815
:1001B000F2004D08F1009431FC2480317103720487
:1001C000031D2A2920005808BF3ED900FF3003181C
:1001D0000030DA0000305A021A30031959020318AD
:1001E000F3280130F4280030DB00DC015B0821003B
:1001F000A60020005C082100A70026082704031998
:1002000005294130F100A03008294930F100A03023
:10021000F2005308203E9F3175278031FD302100C8
:10022000C007FF30C13D20302000D9005908A80088
:10023000210041082000AA00210040082000A90058
:1002400021003C089331A42320002908D500280868
:10025000D400080021005008F4004F08F3004E08B5
:10026000F2004D08F1009431FC24803171087204D1
:10027000031D822920005808BF3ED900FF30031813
:100280000030DA0000305A021A30031959020318FC
:100290004B2901304C290030DB00DC015B082100D8
:1002A000A80020005C082100A900280829040319DF
:1002B0005D294530F100A03060294D30F100A030BB
:1002C000F2005308203E9F3175278031FD30210018
:1002D000C007FF30C13D20302000D9005908A800D8
:1002E000210041082000AA00210040082000A900A8
:1002F00021003C089331A42320002908D5002808B8
:10030000D40008003F302100D8008030D7000030F2
:10031000D6000030D500D101D2015008F4004F08BA
:10032000F3004E08F2004D08F1000030F8000030F4
:10033000F7000030F6000030F50093310D238031D6
:10034000031CD329622A41302000A3002030A200E0
:100350000030A1000030A000210058082000A700B4
:10036000210057082000A600210056082000A50003
:10037000210055082000A4008D31D42580312000B3
:1003800023082100D800200022082100D7002000E7
:1003900021082100D600200020082100D5000130CE
:1003A000D1070030D23D210050082000BD002100BF
:1003B0004F082000BC0021004E082000BB00210097
:1003C0004D082000BA004130A3002030A2000030C8
:1003D000A1000030A000210058082000A700210043
:1003E00057082000A600210056082000A500210083
:1003F00055082000A4008D31D42580312000230829
:10040000C1002208C0002108BF002008BE009531AD
:1004100074258031031C3D2AA32941302000A90006
:100420002030A8000030A7000030A60021005808A6
:100430002000AD00210057082000AC002100560824
:100440002000AB00210055082000AA009631862626
:100450008031200029082100D80020002808210030
:10046000D700200027082100D60020002608210000
:10047000D500FF30D107FF30D23D210050082000C9
:10048000BD0021004F082000BC0021004E082000C4
:10049000BB0021004D082000BA00210058082000B0
:1004A000C100210057082000C0002100560820008C
:1004B000BF00210055082000BE0095317425803111
:1004C000031C0D2A20005808D900DA015908F7004A
:1004D0005A08F8009F319427803177082000DB000C
:1004E0005B082100C20042082000D9005908210001
:1004F000BF0067304206031D992A22005B085C0496
:10050000031D862A0130DB000030DC005C08803AE5
:100510002000D90080305902031D912A01302200A9
:100520005B0203189C2A06302100BD000030BE008B
:10053000A42A2200DC1B932A22005C082100BE00B2
:1005400022005B082100BD0067304206031DD72A48
:100550005208803A2000D9007F305902031DB32A87
:10056000FC3021005102031CD12A21003D08FF3E2E
:100570002000D900FF3021003E3D2000DA005A085B
:10058000803ADB0021005208803A20005B02031D04
:10059000CD2A2100510820005902031CD12A6630BF
:1005A000D22A65302000D90059082100BF003E083A
:1005B000B5003D08B40067304206031DE42A6630EA
:1005C0003F060319D21FE82A0130B4070030B53DB9
:1005D00066303F06031D002BD21FF82A3F30D8009B
:1005E0008030D7000030D6000030D500D101D201D4
:1005F000673042060319002B5108B4075208B53D75
:10060000CB01CC015008C6004F08C5004E08C400FD
:100610004D08C3005808A3005708A2005608A100BF
:100620005508A0004C08803A2000D9002100350868
:10063000803A20005902031D202B210034084B0270
:100640000318F02B210058082000A90021005708AA
:100650002000A800210056082000A700210055080E
:100660002000A600210046082000AD00210045081A
:100670002000AC00210044082000AB00210043080A
:100680002000AA0096318626803120002908C30068
:100690002808C2002708C1002608C0008631F126BC
:1006A0008031200043082100CA00200042082100B8
:1006B000C900200041082100C80020004008210096
:1006C000C7004A08F4004908F3004808F200470848
:1006D000F10094319724803172082100B90071082B
:1006E000B8004A082000A700210049082000A60001
:1006F000210048082000A500210047082000A40090
:10070000210058082000A300210057082000A20063
:10071000210056082000A100210055082000A0005B
:100720008D31D425803120002308BD002208BC0073
:100730002108BB002008BA00210046082000C100A3
:10074000210045082000C000210044082000BF000F
:10075000210043082000BE009F3156278031200031
:100760003D082100C60020003C082100C5002000F3
:100770003B082100C40020003A082100C30041309A
:100780002000A9002030A8000030A7000030A600FB
:10079000210058082000AD00210057082000AC00BF
:1007A000210056082000AB00210055082000AA00B7
:1007B000963186268031200029082100D8002000AB
:1007C00028082100D700200027082100D60020009B
:1007D00026082100D5000130CB070030CC3D122B7C
:1007E00040302000A300A030A2000030A100003063
:1007F000A000210058082000A70021005708200071
:10080000A600210056082000A50021005508200060
:10081000A4008D31D4258031200023082100CA0096
:10082000200022082100C900200021082100C80062
:10083000200020082100C70046082000BD0021003C
:1008400045082000BC00210044082000BB00210016
:1008500043082000BA0021004A082000C1002100FE
:1008600049082000C000210048082000BF002100E6
:1008700047082000BE009531742580310318432CB1
:10088000003021005D2C21004608F4004508F300EB
:100890004408F2004308F1004A08F8004908F7004C
:1008A0004808F6004708F50093310D238031031CFA
:1008B000642C21003818642C0030CA000030C900B4
:1008C0000030C8000030C70021004A08F400490881
:1008D000F3004808F2004708F1005008F8004F08FC
:1008E000F7004E08F6004D08F5008B31F2238031F9
:1008F00074082100C6007308C5007208C40071089E
:10090000C3002308D8002208D7002108D6002008F9
:10091000D50065303F060319922C5208B7005108E4
:10092000B600942CB601B701B201B301B001B10118
:10093000CB01CC01D12D210058082000A9002100B5
:1009400057082000A800210056082000A700210019
:1009500055082000A600210046082000AD00210017
:1009600045082000AC00210044082000AB00210015
:1009700043082000AA0096318626803120002908ED
:10098000C3002808C2002708C1002608C00086311D
:10099000F1268031200043082100CA0020004208CF
:1009A0002100C900200041082100C80020004008A3
:1009B0002100C7004A08F4004908F3004808F20083
:1009C0004708F10094319724803172082100B90062
:1009D0007108B80022005D1AFC2C21003808390487
:1009E000031DFC2C673042060319B71FFC2C013095
:1009F000B0070030B13D4F2D2100320833040319F8
:100A0000B71F1B2D2E302000D90021005308203E97
:100A10008600023087002000590881000130210043
:100A2000D3070030D43DFF30C007FF30C13D013057
:100A3000B2000030B300300831040319392D3030D2
:100A40002000D90021005308203E86000230870094
:100A500020005908810001302100D3070030D43D27
:100A6000FF30C007FF30C13DFF30B007FF30B13D60
:100A70001B2D3808303E2000D90021005308203EAD
:100A800086000230870020005908810001302100D3
:100A9000D3070030D43DFF30C007FF30C13D4A08C6
:100AA0002000A700210049082000A60021004808D6
:100AB0002000A500210047082000A40021005808BC
:100AC0002000A300210057082000A20021005608A2
:100AD0002000A100210055082000A0008D31D42560
:100AE000803120002308BD002208BC002108BB0083
:100AF0002008BA00210046082000C1002100450856
:100B00002000C000210044082000BF00210043084D
:100B10002000BE009F315627803120003D08210073
:100B2000C60020003C082100C50020003B08210031
:100B3000C40020003A082100C30041302000A90071
:100B40002030A8000030A7000030A600210058087F
:100B50002000AD00210057082000AC0021005608FD
:100B60002000AB00210055082000AA0096318626FF
:100B70008031200029082100D80020002808210009
:100B8000D700200027082100D600200026082100D9
:100B9000D500FF30B607FF30B73D0130CB0700303E
:100BA000CC3D4C08803A2000D90021003508803A1D
:100BB00020005902031DDF2D210034084B020318C9
:100BC000EF2D21005408803A2000D90080305902CE
:100BD000031DED2D4B3021005302031C9B2C2100E3
:100BE00032083304031D082E22005D1E082E2E300D
:100BF0002000D90021005308203E860002308700E3
:100C000020005908810001302100D3070030D43D75
:100C100021005308203E86000230870081016530A4
:100C20003F06031DDA2E4F30CB000030CC004B08BE
:100C3000203E8600023087008101BA01BB01D21F2D
:100C40002A2E0130BA000030BB00D109D209D10AE6
:100C50000319D20A0230BD000030BE005108520410
:100C60000319692EFF302100CB07FF30CC3D0A303D
:100C7000F1000030F2005208F4005108F300923104
:100C8000812280317108303E2000D90021004B08BC
:100C9000203E8600023087002000590881000A307B
:100CA000F1000030F20021005208F4005108F30076
:100CB0009331F423803172082100D2007108D100F1
:100CC000FF30BD07FF30BE3DFF30C007FF30C13DE4
:100CD0002E2E3E08803A2000D90080305902031D94
:100CE000742E013021003D020318322EFF30210006
:100CF000CB07FF30CC3D3A083B04031D812E2B303F
:100D0000822E2D30AA000030AB002A082000D90026
:100D100021004B08203E8600023087002000590841
:100D20008100FF302100C007FF30C13DFF30CB07FD
:100D3000FF30CC3D20005808BF3ED900FF300318DB
:100D40000030DA0000305A021A3003195902031831
:100D5000AB2E0130AC2E0030DB00DC015B08210043
:100D6000AE0020005C082100AF002E082F04031DF8
:100D7000BB2E6530BC2E4530AC000030AD002C08D9
:100D80002000D90021004B08203E86000230870059
:100D9000200059088100FF302100C007FF30C13D0D
:100DA0004B08203EF1000230F2005308203E9F31F4
:100DB0007527803120302000D9005908A800210073
:100DC00041082000AA00210040082000A9002100BD
:100DD0003C089331A42320002908D5002808D4001A
:100DE000080022004A082000D30022004908200001
:100DF000D200220048082000D1002200470820002D
:100E0000D0004308D3004208D2004108D100400876
:100E1000D0005008C4005108C5005208C60053084D
:100E2000C7001730C736C60CC50CC40C890B122F6F
:100E3000FF304405C80000304505C9004808813E20
:100E4000CE00FF30493DCF004F08803AC4008030CB
:100E50004402031D2D2F17304E02031808002000F6
:100E6000CF1B8A2FFF30C400FF30C5007F30C60083
:100E70000030C7004E0A402FC737C60CC50CC40C43
:100E8000890B3C2F4708CD004608CC004508CB0015
:100E90004408CA0050084A05C40051084B05C50063
:100EA00052084C05C60053084D05C70047084604C4
:100EB00045044404031908005008C4005108C50043
:100EC0005208C6005308C7001F30C736C60CC50CF1
:100ED000C40C890B652F47084604450444040319D4
:100EE000792F4A08D0074B08D13D4C08D23D4D0818
:100EF000D33D4A09C4004B09C5004C09C6004D0941
:100F0000C7004408D0054508D1054608D205470862
:100F1000D305C02F5008C4005108C5005208C600B0
:100F20005308C7001F30C736C60CC50CC40C890B4C
:100F3000932F4708460445044404031DA32F0030A3
:100F4000D3000030BB2F5008C4005108C500520820
:100F5000C6005308C7000130C435C50DC60DC70D06
:100F6000890BAC2F47084604450444040319C02FDD
:100F7000BF30D3008030D2000030D1000030D0002C
:100F80005308C3005208C2005108C1005008C000F5
:100F90000800F200F301F30A23003C19FE2F720847
:100FA000F1007108B600BC103C153C100E30F10089
:100FB0007108BA00F430B4000130B500BC15DF3060
:100FC000A0001C30A100AC01DF30A2001C30A30047
:100FD000AD01DF30A4001C30A500AE01DF30A6005B
:100FE0001C30A700AF010230A8000030A900B001FA
:100FF0009C31E42487319D31D725F3017308080023
:10100000F30073089F31B6270800E3302100E700A2
:101010006708EA006208DA006108D900EA30E700F0
:101020006708DB00003091312A21080022006B089C
:10103000C2006A08C1006908C0006808BF00163015
:101040002100EB006B082200C40017302100EB00E8
:101050006B082200C5009E31B12688319C31FF24E7
:10106000883122008E148E169E31E126883144305C
:101070002200D6007D30D5004830D4009330D30014
:101080004130D200C630D1001430D0007B30CF00C8
:101090008B170B17A03086000230870028308400A1
:1010A0000130850017302100EB0016001A00EB0B11
:1010B00055284430EB006B082300DA004130210052
:1010C000EB006B082300DB0054302100EB006B08C1
:1010D0002300DC0041302100EB006B082300DD0021
:1010E000DD3021008E0020000C1A70288831C820C5
:1010F00088310B302100EC002630EB005D30890B8D
:101100007F28EB0B7F28EC0B7F28003222000C1588
:101110009D3021008E002200C60146083F3E9231DC
:101120000122883101302100EB006B082200C60744
:1011300004304602031C8D2844309231012288314C
:101140002200C6014608D53E923101228831013085
:101150002100EB006B082200C60709304602031C81
:10116000A22845309231012288312200C60146086A
:101170003F3E92310122883101302100EB006B08A3
:101180002200C60704304602031CB7280C11702841
:101190002A302200A00020082000A8005D309031F5
:1011A000F82088312200A10021082100ED006D08FF
:1011B0002200A000A101A201A3012308E700220848
:1011C000E6002108E5002008E40021006D08220067
:1011D000A00020082300D50029302200A00020080C
:1011E0002000A8005D309031F82088312200A10055
:1011F00021082100ED006D082200A000A101A2013C
:10120000A3016408A4006508A5006608A600670895
:10121000A7000830A435A50DA60DA70D890B0A2936
:101220002408A0042508A1042608A2042708A30472
:101230002308E7002208E6002108E5002008E40072
:1012400021006D082200A00020082300D6002830CD
:101250002200A00020082000A8005D309031F82076
:1012600088312200A10021082100ED006D08220034
:10127000A000A101A201A3016408A4006508A500C3
:101280006608A6006708A7000830A435A50DA60DBE
:10129000A70D890B45292408A0042508A1042608C8
:1012A000A2042708A3042308E7002208E600210877
:1012B000E5002008E40021006D082200A0002008BD
:1012C0002300D7002200E61F792900306404A00023
:1012D00000306504A10000306604A200FF306704FE
:1012E000A3002308E7002208E6002108E500200803
:1012F000E40045302000A9008030A8000030A7009D
:101300000030A60022006708F4006608F3006508B4
:10131000F2006408F10000309531F025883174083E
:101320002000AD007308AC007208AB007108AA0081
:10133000963186268831200029082200D600200018
:1013400028082200D500200027082200D400200011
:1013500026082200D30002302200A1000430A000A1
:10136000BA30890BB129A00BB129A10BB12900001A
:101370002C302200A00020082000A8005D30903111
:10138000F82088312200A10021082100ED006D081D
:101390002200A000A1012008DF002108E0002100B8
:1013A0006D082200A00020082300D8002B30220066
:1013B000A00020082000A8005D309031F82088317E
:1013C0002200A10021082100ED006D082200A000EC
:1013D000A1015F08A300A20120082204DF00210868
:1013E0002304E00021006D082200A0002008230053
:1013F000D90042302000A900C830A8000030A70062
:101400000030A60022005F08F1006008F200F3013E
:10141000F40100309531F025883174082000AD00CA
:101420007308AC007208AB007108AA0096318626DA
:101430008831200029082200D2002000280822003C
:10144000D100200027082200D0002000260822001A
:10145000CF0032302100E100A030E2002200560827
:101460002100E600220055082100E5002200540872
:101470002100E400220053082100E3008831052008
:10148000883120302100E100A030E2002200520823
:101490002100E600220051082100E500220050084A
:1014A0002100E40022004F082100E30088310520DC
:1014B00008002000EF005D0886008701403FDF0044
:1014C000413FE0005F088400600885001200253A73
:1014D000031DCF2B5D088600870101308107413154
:1014E0000318810A2200D901DA01DD01DE01FF3093
:1014F000DB00FF30DC0020005D0886008701403FF4
:10150000DF00413FE0005F088400600885000008BC
:10151000E100E2016108F7006208F8009F319427BA
:101520008A3177082000E3006308E70067080319A1
:10153000D62A5D0886008701403FDF00413FE0007A
:1015400001305F07840060080318600A8500000806
:10155000E100E2016108F7006208F8009F3194277A
:101560008A3177082000E3006308E800680803195F
:10157000D62A5D0886008701403FDF00413FE0003A
:1015800002305F07840060080318600A85000008C5
:10159000E100E2016108F7006208F8009F3194273A
:1015A0008A3177082000E3006308E90066306706A7
:1015B000031D162B5D0886008701403FDF00413F79
:1015C000E0005F088400600885000008E100610811
:1015D000EE005D0886008701013081074131031864
:1015E000810A5E08860087010108840085010430B5
:1015F0008107003FEA00013FEB00023FEC00033FA0
:10160000ED006D08D7006C08D6006B08D5006A089D
:10161000D4006E08DF005F08D8006F0880315D20BD
:1016200020005508DE005408DD0008005130F100AC
:10163000A030F2000230F3000030F4006730933144
:1016400056238A3171087204031D9C2B20005D080B
:1016500086008701403FDF00413FE00001305F0727
:10166000840060080318600A85000008E100610832
:10167000EE005D0886008701403FDF00413FE0004B
:101680005F088400600885000008BF3EE100FF306D
:1016900003180030E200003062021A3003196102C0
:1016A0000318542B0130552B0030E300E40163088C
:1016B000E5006408E6006508660403196F2B5E0800
:1016C0008600870101088400850104308107003FFE
:1016D000EA00013FEB00023FEC00033F7E2B5E0877
:1016E0008600870101088400850104308107003FDE
:1016F000EA00013FEB00023FEC00033FED005D0814
:10170000860087010230810741310318810A6D0884
:10171000D7006C08D6006B08D5006A08D4006E08A4
:10172000DF005F08D8006F0880315D202000550879
:10173000DE005408DD00080020005D0886008701F7
:10174000403FDF00413FE0005F0884006008850003
:101750001200253A031DC42B5D0886008701013065
:10176000810741310318810A2530F4000030F5006B
:101770006F08DF005F08F6009131912101302000F1
:10178000DD000030DE0008005D08860087010130C2
:10179000810741310318810ADD01DE0108005D087F
:1017A00086008701403FDF00413FE0005F08840082
:1017B000600885000008E100E2016108F4006208A9
:1017C000F5006F08E3006308F600913191218A313A
:1017D00020005D0886008701013081074131031830
:1017E000810ABE2B740880392000A0002008A800C0
:1017F0007435A0002008AA00F31B2A142A08031934
:101800000F2C2A0A031D0C2C0030F4000030F300CA
:101810000030F2000030F100F317F401172C003013
:10182000F4000030F3000030F2000030F1007808DE
:101830008039A0002008A90029082806031D2817C0
:101840007835A0002008A900F71B291429080319DE
:10185000372C290A031D342C0030F8000030F70023
:101860000030F6000030F500F717F8013F2C00308B
:10187000F8000030F7000030F6000030F5002A08CC
:1018800029020318852C281F492C8030A00020082D
:10189000A8062A08A0002008AB002908A0002008FC
:1018A000AA002B08A0002008A9007108A0002008A9
:1018B000AB007508A0002008F1002B08A00020084C
:1018C000F5007208A0002008AB007608A0002008F0
:1018D000F2002B08A0002008F6007308A0002008E2
:1018E000AB007708A0002008F3002B08A000200818
:1018F000F7007408A0002008AB007808A0002008BA
:10190000F4002B08A0002008F800AB012908A00073
:10191000A1012108A3002A082002A200031CA3039E
:101920002308803AA40080302402031D992C1A3029
:101930002202031CCD2C7408730472047104031971
:10194000A32C0130A42C00302000A0002008AB0004
:101950000030F4000030F3000030F2000030F100FD
:101960002908A0002008AA00D22C2B1CBD2C2B3645
:101970000138A0002008AB00BF2C0310AB0C71187D
:10198000AB170130A000F437F30CF20CF10CA00BF4
:10199000C32C0130A0002008AA07200029082A0231
:1019A000031CB52C281B032D2A08031DE02C003036
:1019B000F4000030F3000030F2000030F1000800C5
:1019C0007508F1077608F23D7708F33D7808F43D95
:1019D000741C7D2D2B1CF22C2B360138A000200806
:1019E000AB00F42C0310AB0C7118AB170130A00046
:1019F000F437F30CF20CF10CA00BF82C0130A00022
:101A00002008AA077D2D7408803AA0007808803A43
:101A10002002031D152D77087302031D152D76086E
:101A20007202031D152D7508710203184D2DFF302C
:101A3000A000FF30A100FF30A200FF30A30071081A
:101A40007502A4007208763BA5007308773BA600D8
:101A50007408783BA7002408A0072508A13D2608A4
:101A6000A23D2708A33D2308F4002208F300210823
:101A7000F2002008F1008030A0002008A806AB0981
:101A8000AB0A2B08031D552D0130F1070030F23D44
:101A90000030F33D0030F43D552D7508F102760815
:101AA000F23B7708F33B7808F43B74087304720444
:101AB0007104031D7B2D2B08031D7B2D0030F400CA
:101AC0000030F3000030F2000030F1000800013077
:101AD000F135F20DF30DF40D890B682DAB1B71146C
:101AE0002B1C742D0314752D0310AB0D2A0803193C
:101AF0007B2D0130AA02F31F672DA901AB1F882D92
:101B00002B087F3903197118862D882DA901A90A80
:101B100029080319B42D0130F1070030F23D0030DF
:101B2000F33D0030F43D741CB42D7108A000720820
:101B3000A1007308A2007408A3000130A400A33719
:101B4000A20CA10CA00CA40B9F2D2308F4002208CA
:101B5000F3002108F2002008F1002A0A0319B42D2D
:101B60000130A0002008AA072A0A031D2A08031D25
:101B7000C42D0030F4000030F3000030F2000030DB
:101B8000F1002A080319A8012A1CC82DF317CC2D2F
:101B90007F30A0002008F3052A36A0002008F400BA
:101BA000A81F0800F4170800200023088039A800A7
:101BB0002808AD002335A8002808B300A21B331461
:101BC00033080319F02D330A031DEE2D0030A30056
:101BD0000030A2000030A1000030A000A217F82DB4
:101BE0000030A3000030A2000030A1000030A000AF
:101BF00027088039A8002808AD062735A80028083E
:101C0000B200A61B321432080319132E320A031D28
:101C1000112E0030A7000030A6000030A5000030D3
:101C2000A400A6171B2E0030A7000030A60000302D
:101C3000A5000030A4003208031D3308031D292E1F
:101C40000030A3000030A2000030A1000030A0004E
:101C500008002008A8002808F10026089F3137272F
:101C60008D3172082000B9007108B8003808A8004A
:101C7000A901AA01AB012B08B1002A08B00029086C
:101C8000AF002808AE003908A800A901AA01AB01DD
:101C90002B08B7002A08B6002908B5002808B400A8
:101CA0002108A8002808F10025089F3137278D3129
:101CB00072082000B9007108B8003808A800A9010E
:101CC000AA01AB012808AE072908AF3D2A08B03D9C
:101CD0002B08B13D3908A800A901AA01AB012808C9
:101CE000B4072908B53D2A08B63D2B08B73D2208A0
:101CF000A8002808F10024089F3137278D31720889
:101D00002000B9007108B8003808A800A901AA018C
:101D1000AB012808AE072908AF3D2A08B03D2B08C3
:101D2000B13D3908A800A901AA01AB012808B407F0
:101D30002908B53D2A08B63D2B08B73D0830AE3519
:101D4000AF0DB00DB10D890B9F2E2108A8002808FA
:101D5000F10024089F3137278D3172082000B90027
:101D60007108B8003808AE073908AF3D0030B03D03
:101D7000B13D2008A8002808F10025089F31372729
:101D80008D3172082000B9007108B8003808AE071C
:101D90003908AF3D0030B03DB13D0830AE35AF0D34
:101DA000B00DB10D890BCE2E2008A8002808F10037
:101DB00024089F3137278D3172082000B90071083F
:101DC000B8003808AE073908AF3D0030B03DB13D2E
:101DD0002108A8002808F10026089F3137278D31F7
:101DE00072082000B9007108B8003808B407390833
:101DF000B53D0030B63DB73D2208A8002808F100E7
:101E000025089F3137278D3172082000B9007108ED
:101E1000B8003808B4073908B53D0030B63DB73DC5
:101E20002208A8002808F10026089F3137278D31A5
:101E300072082000B9007108B8003808A8003908F5
:101E4000A900AA01AB010830A835A90DAA0DAB0D58
:101E5000890B242F2808B4072908B53D2A08B63D68
:101E60002B08B73D2E08A8002F08A9003008AA00AB
:101E70003108AB001830AB36AA0CA90CA80C890BA2
:101E80003B2F2808B4072908B53D2A08B63D2B0882
:101E9000B73D0830AE35AF0DB00DB10D890B4A2FEF
:101EA00033083207A800A901A90D2808823EB8000E
:101EB000FF30293DB900B61B722F0130B435B50D86
:101EC000B60DB70D890B5E2FB11B34140130AE3542
:101ED000AF0DB00DB10D890B672FFF30B807FF3084
:101EE000B93D5B2FB201B11F8B2FFF302E05A8002B
:101EF000FF302F05A900FF303005AA007F303105E3
:101F0000AB002B082A042904280403193418892F4C
:101F10008B2FB201B20A32080319B42F0130B40773
:101F20000030B53D0030B63D0030B73D371CB42F12
:101F30003408A8003508A9003608AA003708AB0005
:101F40000130AC00AB37AA0CA90CA80CAC0BA22F2B
:101F50002B08B7002A08B6002908B5002808B400E5
:101F60000130B8070030B93D3908803AA800803008
:101F70002802031DBD2FFF303802031CC92F7F30FC
:101F80002000B7008030B6000030B5000030B4004B
:101F9000F32F20003908803AA80080302802031D62
:101FA000D32F013038020318E02F00302000B70093
:101FB0000030B6000030B5000030B400AD01F32FA2
:101FC00020003808A8002808B300FF30B405FF300F
:101FD000B5057F30B6050030B7053318B617333670
:101FE000A8002808B7002D08A8002808B70437085B
:101FF000A3003608A2003508A1003408A00008009C
:10200000F201F20A2300BC1817283C11FF30F1003E
:102010007108B6009C31E42490319C31EA2490315F
:102020009C31E72423003B08F1007108F20072089C
:102030000800F50071087204031931287535A03EB7
:102040008600013087007108C03F7208C13F7308E5
:10205000F4007508AC3E86000130870074088100EA
:1020600008007535A03E860001308700DF30C03F94
:102070001C30C13F7508AC3E8600013087008101ED
:1020800008009C31E424903123003C1C53289D31EE
:1020900067259031003A031953280F302000A30020
:1020A00023082300BA0023003A082000A300A4015B
:1020B000A335A40D003023078400A030243D850003
:1020C000013F8A00003F0A0090312000A50025084A
:1020D0002300BA0008002300BC1578289D311A257A
:1020E00008009C31FC24033008009D311E250800A7
:1020F0002C082000A0002008FA00230021088A00F4
:1021000020080A0090312000A100A2012208003A14
:1021100003198B2875282108013A03197528033AF9
:1021200003196E28013A03196E28073A031971281A
:102130007528080023003C1002302000A000200871
:102140002300BB00A9289D311A2508009D311E25BA
:1021500008002E082000A0002008FA000430A03E4D
:10216000860001308700413F8A00403F0A009031DD
:102170002000A100A2012208003A0319C028A628C5
:102180002108023A0319A328013A0319A328A62813
:1021900008002000AB0020002B088731C9279031B0
:1021A000003A0319CB284430F6001E30F7002930DE
:1021B0002000AA002A08F8009D31EE259031013058
:1021C000F1000030F20028309E31062690310030B8
:1021D000F600F700F8019D31FA2590319D31322546
:1021E0009031903100209031013A031D0800F12810
:1021F0002000AA00AB0120002A088731C9279031AE
:10220000003A0319FB282430F6001E30F7002B306B
:102210002000A9002908F8009D31EE2590310130F9
:10222000F1000030F20028309E3106269031003057
:10223000F600F700F8019D31FA2590319D313225E5
:102240009031903100209031013A0319212920006A
:102250002B0808002100DE005A08E0005908DF00C2
:102260002200D701D80121005F08840060088500A2
:10227000120003195429DF30DC005C082000DD0067
:1022800021005B08DD005D082000DE0021005E0803
:102290008A315922913120005D082200D7072000A1
:1022A0005E082200D83D3329220058082100DA00B8
:1022B000220057082100D90008007C08BD3E860096
:1022C00001308700810123001D1D71297C08BD3E5E
:1022D000860001308700811463088A0062080A00C2
:1022E000913123009D1C7F297C08BD3E8600013072
:1022F0008700011561088A0060080A0091317C0896
:10230000BD3E860001308700010803198E29230095
:102310005F088A005E080A00913108009E31992604
:1023200008007608031D7608031D9A297408883171
:10233000002008007608033E86008701160001048D
:102340000319BD297608033E86008701403FF70048
:10235000413FF800760A86008701403FF900413F7F
:10236000FA007A08803AFB007808803A7B02031D65
:10237000BB297708790203180800760A86008701CE
:102380000130810741310318810A080022008C01C5
:102390008D018E01333021008C0070308D009D3016
:1023A0008E00F73023008E0080308D0027308C00A7
:1023B000503024008D008C018E0125008C018D0190
:1023C0008E01373026008C00F0308D00FF308E00FB
:1023D0003F3027008C00F0308D00FF308E000D3034
:1023E0003C00A4000E30A00018303D009E001430C8
:1023F0009F0019309C000230A6000C303C00A10068
:102400000800F3009D31CD2592314630F100423075
:10241000890B082AF10B082A0000F20173088600D4
:10242000013087000108F100720A172AF136890B82
:10243000162A711C1F2A9D31C3259231222A9D31F3
:10244000CD2592314630F1004230890B252AF10B1F
:10245000252A00000130F1007108F20708307202ED
:10246000031C0E2A9D31C32592314630F1004230C3
:10247000890B382AF10B382A00000800210091123C
:102480005D30F1001130F2009D315B259231210069
:102490001112FB30F1001E30F2009D3161259231A6
:1024A000083023009F0090309D0024309E00A03013
:1024B0009B0001309C00DE30F1001C30F2009D31A9
:1024C0004F2592310230F1001D30F2009D3155252B
:1024D0009231E130F1001C30F2009D31492522009B
:1024E000E1012100EF012200E3010830F30073084D
:1024F000EE00FC012100EE012200E2012100911614
:102500000800F701F41F8B2AF309F409F30A0319F1
:10251000F40AF701F70AF21F922AF109F209F10A07
:102520000319F20A710872040319B92AF601F60AAE
:10253000F21BA42A0130F135F20D890B9B2A0130E0
:10254000F5007508F607982A72087402031DAA2A76
:1025500071087302031CB02A7108F3027208F43B7D
:102560000130F236F10C890BB12A0130F602031D5D
:10257000A42A77080319C12AF309F409F30A0319F5
:10258000F40A7408F2007308F10008009C31F92481
:1025900092312000A0002300370886008701200028
:1025A000200881000130A00020082300B707013077
:1025B000B8020030B93B380839040319E32A9D31C9
:1025C0000E2505300800BC15EB2A9D312A25080090
:1025D0009D31262508002C082000A0002008FA00C4
:1025E000230021088A0020080A0092312000A1005F
:1025F000A2012208003A0319FE2AE82A2108013A1A
:102600000319E82A033A0319E52A013A0319E52ACE
:10261000073A0319E82AE82A08000030710520006B
:10262000A00000307205A10080307305A2007F3049
:102630007405A3002308220421042004031D282B71
:102640000030F4000030F3000030F2000030F10000
:1026500000307505A00000307605A10080307705B8
:10266000A2007F307805A30023082204210420045F
:10267000031D422B0030F8000030F7000030F60058
:102680000030F50078087406031D502B7708730698
:10269000031D502B76087206031D502B750871061A
:1026A0000319542B0310080003140800F6007608E1
:1026B000F5007508F9007208F8007108F70001309C
:1026C000F3020030F43B730A031D902B740A031DC0
:1026D000902BF101F201080077088400780885004A
:1026E00012000319962B730874040319962B7708AC
:1026F0008400780885000008F500790886008701C5
:1027000001087506031D962B0130F5007508F907C1
:102710000130F7070030F83D0130F3020030F43BA0
:102720007908860087010108031D6C2B7908860053
:102730008701770884007808850000080102F1000D
:10274000F201031CF20308002000B00022005D1C0F
:10275000B22B20003008AB002B08A00028089F31C6
:10276000DA2793312000AA1BBA2B2A08AF002908C8
:10277000AE00BC2BAE01AF01AC01AD012D08803A1B
:10278000AB002F08803A2B02031DC82B2E082C0209
:102790000318DC2B2030F4000030F5002000300856
:1027A000AB002B08F60091319121933101302000CC
:1027B000AC070030AD3DBE2B22005D18E82B200099
:1027C0003008AB002B08A00028089F31DA2793318E
:1027D000200028089E31C92620002E087107A80075
:1027E0002F08723DA9000800F701F21FFE2BF10926
:1027F000F209F10A0319F20AF701F70AF41F092C8A
:10280000F309F409F30A0319F40A0130F500750815
:10281000F706F801F901710872040319382CF60162
:10282000F60AF21B1D2C0130F135F20D890B142C28
:102830000130F5007508F607112C0130F835F90D57
:10284000890B1E2C72087402031D282C7108730258
:10285000031C2F2C7108F3027208F43B781401302A
:10286000F236F10C890B302C0130F602031D1D2CC1
:1028700077080319402CF809F909F80A0319F90A2D
:102880007908F2007808F10008009D31672594313D
:10289000003A031D552C7B2C9D31122508009D31DB
:1028A000162508009D311E25080023002F08200052
:1028B000A0002008FA000630A03E86000130870004
:1028C000413F8A00403F0A0094312000A100A2014C
:1028D0002208003A03196D2C522C2108013A0319E1
:1028E000522C033A03194C2C013A03194F2C073A86
:1028F0000319522C522C23003C101730A03E8600A6
:1029000001308700403F84008501810A00089D3125
:102910003A25943101302300B8020030B93B380821
:102920003904031D952C06300800033008000310FD
:10293000730D740DF5007508FB007B08031DA92CB1
:102940000030F4000030F3000030F2000030F100FD
:1029500008007108F5007208F6007308F7007408A3
:10296000F8001F30F836F70CF60CF50C890BB22C7A
:102970007508F9007908FA00F317FF30F105FF3008
:10298000F205FF30F3050030F4059630FB02FB1F23
:10299000DC2C7B08803A973E031CA02C0130F436D7
:1029A000F30CF20CF10C890BCF2C0130F5007508FB
:1029B000FB070319ED2CCE2C20307B020318A02C32
:1029C0007B080319ED2C0130F135F20DF30DF40DF8
:1029D000890BE42C0130FB02E02C7A080319080073
:1029E000F109F209F309F409F10A0319F20A0319CA
:1029F000F30A0319F40A080022004E082000A5007B
:102A000022004D082000A40022004C082000A30052
:102A100022004B082000A2007408A5007308A4003F
:102A20007208A3007108A2002208F5002308F6002E
:102A30002408F7002508F8001730F836F70CF60CD4
:102A4000F50C890B1D2DFF307505A00000307605B3
:102A5000A10020082104031D4C2D2208F5002308A5
:102A6000F6002408F7002508F8000130F535F60DCA
:102A7000F70DF80D890B362D780877047604750468
:102A8000031D472D0230F1000030F2000800033032
:102A9000F1000030F2000800200A2104031D6F2D10
:102AA0002208F5002308F6002408F7002508F8009E
:102AB0000930F535F60DF70DF80D890B592D78080D
:102AC000770476047504031D672D0130682D0030EE
:102AD000F900FA017908F1007A08F20008000430E0
:102AE000F1000030F2000800003020003A05C2007A
:102AF00000303B05C30080303C05C4007F303D05FD
:102B0000C5004508440443044204031D8F2D0030D2
:102B1000BD000030BC000030BB000030BA00003007
:102B20003E05C20000303F05C30080304005C400B0
:102B30007F304105C5004508440443044204031D99
:102B4000A92D0030C1000030C0000030BF000030AF
:102B5000BE00BD1FC32D0030C2000030C3000030D6
:102B6000C4008030C5003A08C2023B08C33B3C08A1
:102B7000C43B3D08C53B4508BD004408BC004308B4
:102B8000BB004208BA00C11FDD2D0030C20000307A
:102B9000C3000030C4008030C5003E08C2023F08B8
:102BA000C33B4008C43B4108C53B4508C10044083D
:102BB000C0004308BF004208BE008030BD06803020
:102BC000C10641083D02031D080040083C02031DE8
:102BD00008003F083B02031D08003E083A020800B7
:102BE0002000A0002008031DF41F062E7109A2007A
:102BF0007209A3007309A4007409A500A20A0319AD
:102C0000A30A0319A40A0319A50A0E2E7408A50025
:102C10007308A4007208A3007108A200740873046A
:102C200072047104031D1D2E0030F4000030F30007
:102C30000030F2000030F10008009630F500750811
:102C4000A100FE3025050319442E0130F50075085A
:102C5000A1070130A536A40CA30CA20C890B2A2EC7
:102C6000212E0130F5007508A1070130A2070030C0
:102C7000A33D0030A43D0030A53D0130A536A40C95
:102C8000A30CA20C890B3E2EFF3025050319562EEE
:102C9000312E02302102031C582E0130A1020130D6
:102CA000A235A30DA40DA50D890B502EA41F492EEE
:102CB0002118622EFF30A205FF30A3057F30A40546
:102CC000FF30A5050310A10C2108F500F601F7015E
:102CD000F8011830F535F60DF70DF80D890B6A2E51
:102CE0007508A2047608A3047708A4047808A5044C
:102CF0002008031DF41F7D2EA5172508F4002408C5
:102D0000F3002308F2002208F100080020002D083B
:102D10008039AE002E08B7002D35AE002E08BE005B
:102D2000AC1B3E143E080319A32E3E0A031DA02E21
:102D30000030AD000030AC000030AB000030AA0025
:102D4000AC17AD01AB2E0030AD000030AC00003050
:102D5000AB000030AA0029088039AE002E08B70663
:102D60002935AE002E08BF00A81B3F143F080319E9
:102D7000C72E3F0A031DC42E0030A9000030A80052
:102D80000030A7000030A600A817A901CF2E003000
:102D9000A9000030A8000030A7000030A6002908D4
:102DA000280427042604031DEE2E0030AD00003059
:102DB000AC000030AB000030AA008030AC047F30A3
:102DC000AD043708AE002E08AD042D08A9002C086C
:102DD000A8002B08A7002A08A60008003E08031D2B
:102DE000FA2E0030A9000030A8000030A700003003
:102DF000A60008003E08AE00AF012F08B1003F0852
:102E00002E02B000031CB10330087F3EB800003032
:102E1000313DB9002D08B6002C08B5002B08B400D0
:102E20002A08B3000030AD000030AC000030AB0029
:102E30000030AA000030BD000030BC000030BB00F4
:102E40000030BA00BF011A303F0203185F2F3F085D
:102E50000319412F0130B335B40DB50DB60D890BF3
:102E60002B2F0130AA35AB0DAC0DAD0D890B322FD8
:102E7000BD1B2A140130BA35BB0DBC0DBD0D890B2D
:102E80003B2F29083602031D4F2F28083502031D4A
:102E90004F2F27083402031D4F2F26083302031C2F
:102EA0005A2F3D172608B3022708B43B2808B53B24
:102EB0002908B63B0130AE002E08BF07232F360885
:102EC000350434043304031D3A14AC1B7C2F013049
:102ED000AA35AB0DAC0DAD0D890B682FBD1B2A14A7
:102EE0000130BA35BB0DBC0DBD0D890B712FFF3004
:102EF000B807FF30B93D652FBF01BD1F952FFF30CB
:102F00003A05AE00FF303B05AF00FF303C05B00096
:102F10007F303D05B100310830042F042E04031921
:102F20002A18932F952FBF01BF0A3F080319BE2F00
:102F30000130AA070030AB3D0030AC3D0030AD3D64
:102F40002D1CBE2F2A08AE002B08AF002C08B000A5
:102F50002D08B1000130B200B137B00CAF0CAE0C8F
:102F6000B20BAC2F3108AD003008AC002F08AB001D
:102F70002E08AA000130B8070030B93D3908803A60
:102F8000AE0080302E02031DC72FFF303802031C15
:102F9000D62FFF302000B8000030B9000030AD005F
:102FA0000030AC000030AB000030AA00200039082F
:102FB000803AAE0080302E02031DE02F013038022F
:102FC0000318EE2F2000B801B9010030AD00003029
:102FD000AC000030AB000030AA00B7012000380878
:102FE000AE002E08BE003E1CF72FAC17FB2F7F3023
:102FF000AE002E08AC053E36AE002E08AD00E12E28
:1039BC000800013008009E31992608002000911162
:1039CC000800240095120800210091110800240021
:1039DC00161408002400961408002400161508007C
:1039EC0024009615080024001108080020009115E9
:1039FC0008002C009901080023001D121D16080058
:103A0C0016302100970008002400961616160800A0
:103A1C0024009612161608009C31F0240130080080
:103A2C009C31F024023008009C31F0240130080055
:103A3C009C31F324003008009D310E250530080020
:103A4C009D310A250A3008009D310A2509300800ED
:103A5C002000911908002E2D00309F3119270800E5
:103A6C00FF340034FF340034F1007108240091005D
:103A7C0008002300BC10BB010E3008002300BC1052
:103A8C00BB010E30080072082300DF007108DE0055
:103A9C00080072082300E3007108E20008007208B5
:103AAC002300E1007108E000080072082300E50023
:103ABC007108E400080072082200ED007108EC00A7
:103ACC0008002400160E890C890C0139080023000B
:103ADC003C109C31F6240430080064008001013154
:103AEC00890B742D0034FE0012001E00FE0B7A2D83
:103AFC00003423003C1436359D313A250330080040
:103B0C0032009101920193019401950196010800F4
:103B1C00683020009E009D01911005309F00080028
:103B2C0023003C140314360D9D313A250530080052
:103B3C0024009401083095009601273092009512CC
:103B4C0008006030320099009B019D0106309F00F7
:103B5C009E010800740873047204710403190800B0
:103B6C008030F40608002300BC1C08009D312E2573
:103B7C009D31903141209D31B92D80302C00990020
:103B8C00683020009E0034302C00980008008030F3
:103B9C002C009900743020009E003A302C009800C4
:103BAC0008002400951A080094010830950096012D
:103BBC00273092009516080080302C009900343084
:103BCC009800403097001F08FC3901389F0008000E
:103BDC007708F2007608F1007808F9007908F3000C
:103BEC0000309031192008007708F2007608F100B7
:103BFC007808F9007908F300023090311920080098
:103C0C00F4002300BC1D08007408F3007308B7000F
:103C1C007208B9007108B800BC1108000230F1003C
:103C2C000030F2007A089E3106269E310030F600F4
:103C3C00F700F8019D31EE25043008000130F10049
:103C4C000030F2007A089E3106269E310030F600D4
:103C5C00F700F8019D31EE25023008000230F1002A
:103C6C000030F2007A089E3106269E310030F600B4
:103C7C00F700F8019D31EE25023008000130F1000B
:103C8C000030F2007A089E3106269E310030F60094
:103C9C00F700F8019D31EE25043008007A08860003
:103CAC008701403FF100413FF2007A08023E860056
:103CBC00870101089E3106269E310030F600F70080
:103CCC00F8019D31EE25023008007108BF3EF3006B
:103CDC00FF30723DF400003074021A300319730285
:103CEC0003187A2E01307B2E0030F500F601750892
:103CFC00F1007608F2000800FF340034FF34003481
:103D0C001634483445344C344C344F34203453340A
:103D1C0045344E3453344F34523453341734FF3407
:103D2C000034FF34003423001908F0007C08C53E31
:103D3C00860001308700700881000130F0007008A7
:103D4C00FC0708307C020318FC010130F0007008FD
:103D5C002200E20708009D3186259E319D319E256B
:103D6C009E319131C6219E319D31A7259E319D31C9
:103D7C0006259E319D318E259E319D31E2259E3149
:103D8C0092313E220800F5007508F3007308F40028
:103D9C00750886000230870001080319DA2E0130FD
:103DAC00F3007308F507CE2E74087502F100F201CA
:103DBC00F11BF203080011302000AC002C08A80005
:103DCC001430AD002D08A9005D309031C9209E3112
:103DDC0010302000AC002C08A8005230AD002D088B
:103DEC00A9005D309031C9200800083022006E0215
:103DFC000318162F6308CD3E86000130870001089A
:103E0C0023009A000130F00070082200E30708300C
:103E1C0063020318E3010130F0007008EE0708009C
:103E2C002100111208002000A600A701A70A2300F8
:103E3C00BC18342FBC142000A701260803192A2F04
:103E4C002300BA01BA0A2F2F0230FB007B08230093
:103E5C00BA009C31ED249F319D31B92520002708F3
:103E6C000800F900F501F6017108F300F40173087C
:103E7C00F7007408F800791C472F7708F5077808C5
:103E8C00F63D0130F735F80D890B482F0310F90C6E
:103E9C007908031D412F7608F2007508F10008001F
:103EAC0080302000BD064108F4004008F3003F08B4
:103EBC00F2003E08F1003D08F8003C08F7003B0812
:103ECC00F6003A08F5008B31F22374082000BD008F
:103EDC007308BC007208BB007108BA000800F80037
:103EEC007208F6007108F5007808F3007308F70003
:103EFC007708860002308700F70A7608F400750808
:103F0C00F300F50A0319F60A730884007408850097
:103F1C000008C03F8908031908007E2F7708BF3EB0
:103F2C002000A000FF30783DA100003021021A30A3
:103F3C00031920020318A42F0130A52F0030A20072
:103F4C00A3012208F9002308FA0079087A0403195E
:103F5C00080020307704F70000307804F8000800DF
:103F6C00F20022006E080319B72F2100111AC22F7C
:103F7C00720823009A00D72F11127208F1006F08F3
:103F8C00CD3E860001308700710881000130F100C0
:103F9C007108EF0708306F020318EF01013022009F
:103FAC00EE022100111608002000A700A501A601B1
:103FBC0025082707A1002108860002308700010888
:103FCC00A2002208A4002408031908002408A10058
:103FDC00A2012108F4002208F5002008A300230800
:103FEC00F600913191219F3101302000A50700305E
:103FFC00A63DDE2F3F341D3496341D347F341D34E2
:10400C0045341434C63412346D341D346B341034CE
:10401C0012341D3416341D341A341D341E341D3420
:10402C0022341D3426341D342A341D3444341D34BA
:10403C009A341034543465346D34703465347234BD
:10404C006134743475347234653420343A34203429
:10405C00253466340A340034503472346534733485
:10406C00733475347234653420343A342034253446
:10407C0066340A34003449344E34463400344E34F9
:10408C0041344E34003469346E34663400346E344A
:0C409C0061346E3400346C34663400343F
:020000040001F9
:08000E00ECFFF3FFFFFFFFFF11
:00000001FF
