:020000040000FA
:1000000080312328053008007E1480310B1F212801
:100010002100111E15282000111E152822006E082F
:100020008A006D080A00803121282100911E2128B4
:100030002000911E2128230065088A0064080A0018
:1000400080317E100900803125289C3084009D304D
:100050008500693086000130870004309D31E42539
:100060008031ED3084009E308500A0308600023063
:10007000870017309D31E4258031FC012100ED011E
:10008000EE01EF01483084000130850021309D31C0
:10009000DE258031A03084000130850036309D316E
:1000A000DE258031203084000230850050309D31C3
:1000B000DE257E102000883133282100BC00BA01E3
:1000C000BB01200057082100D00020005608210065
:1000D000CF00200055082100CE0020005408210048
:1000E000CD0050082000BD0021004F082000BC00BA
:1000F00021004E082000BB0021004D082000BA005E
:100100000030C1000030C0000030BF000030BE0031
:100110009531772580310318A62801302100BA00D7
:100120000030BB005008F4004F08F3004E08F20006
:100130004D08F1009E311B26803174082100D0004B
:100140007308CF007208CE007108CD002100D301E2
:10015000D40122005B082100C10022005A082100BE
:10016000C0003A083B04031DB82822005E1DD228B7
:1001700021003A083B04031DBF282B30C0282D3036
:10018000A4000030A50024082000D900590824004C
:10019000A00001302100D3070030D43DFF30C0075C
:1001A000FF30C13D21005008F4004F08F3004E0815
:1001B000F2004D08F1009431FF2480317103720484
:1001C000031D2A2920005808BF3ED900FF3003181C
:1001D0000030DA0000305A021A30031959020318AD
:1001E000F3280130F4280030DB00DC015B0821003B
:1001F000A60020005C082100A70026082704031998
:1002000005292130F100A03008292930F100A03063
:10021000F2005308203E9F31C1278031FD3021007C
:10022000C007FF30C13D20302000D9005908A80088
:10023000210041082000AA00210040082000A90058
:1002400021003C089331A72320002908D500280865
:10025000D400080021005008F4004F08F3004E08B5
:10026000F2004D08F1009431FF24803171087204CE
:10027000031D822920005808BF3ED900FF30031813
:100280000030DA0000305A021A30031959020318FC
:100290004B2901304C290030DB00DC015B082100D8
:1002A000A80020005C082100A900280829040319DF
:1002B0005D292530F100A03060292D30F100A030FB
:1002C000F2005308203E9F31C1278031FD302100CC
:1002D000C007FF30C13D20302000D9005908A800D8
:1002E000210041082000AA00210040082000A900A8
:1002F00021003C089331A72320002908D5002808B5
:10030000D40008003F302100D8008030D7000030F2
:10031000D6000030D500D101D2015008F4004F08BA
:10032000F3004E08F2004D08F1000030F8000030F4
:10033000F7000030F6000030F500933110238031D3
:10034000031CD329622A41302000A3002030A200E0
:100350000030A1000030A000210058082000A700B4
:10036000210057082000A600210056082000A50003
:10037000210055082000A4008D31D42580312000B3
:1003800023082100D800200022082100D7002000E7
:1003900021082100D600200020082100D5000130CE
:1003A000D1070030D23D210050082000BD002100BF
:1003B0004F082000BC0021004E082000BB00210097
:1003C0004D082000BA004130A3002030A2000030C8
:1003D000A1000030A000210058082000A700210043
:1003E00057082000A600210056082000A500210083
:1003F00055082000A4008D31D42580312000230829
:10040000C1002208C0002108BF002008BE009531AD
:1004100077258031031C3D2AA32941302000A90003
:100420002030A8000030A7000030A60021005808A6
:100430002000AD00210057082000AC002100560824
:100440002000AB00210055082000AA008831DF20E1
:100450008031200029082100D80020002808210030
:10046000D700200027082100D60020002608210000
:10047000D500FF30D107FF30D23D210050082000C9
:10048000BD0021004F082000BC0021004E082000C4
:10049000BB0021004D082000BA00210058082000B0
:1004A000C100210057082000C0002100560820008C
:1004B000BF00210055082000BE009531772580310E
:1004C000031C0D2A20005808D900DA015908F7004A
:1004D0005A08F80090311220803177082000DB00A4
:1004E0005B082100C20042082000D9005908210001
:1004F000BF0067304206031D992A22005C085D0494
:10050000031D862A0130DC000030DD005D08803AE2
:100510002000D90080305902031D912A01302200A9
:100520005C0203189C2A06302100BD000030BE008A
:10053000A42A2200DD1B932A22005D082100BE00B0
:1005400022005C082100BD0067304206031DD72A47
:100550005208803A2000D9007F305902031DB32A87
:10056000FC3021005102031CD12A21003D08FF3E2E
:100570002000D900FF3021003E3D2000DA005A085B
:10058000803ADB0021005208803A20005B02031D04
:10059000CD2A2100510820005902031CD12A6630BF
:1005A000D22A65302000D90059082100BF003E083A
:1005B000B5003D08B40067304206031DE42A6630EA
:1005C0003F060319D21FE82A0130B4070030B53DB9
:1005D00066303F06031D002BD21FF82A3F30D8009B
:1005E0008030D7000030D6000030D500D101D201D4
:1005F000673042060319002B5108B4075208B53D75
:10060000CB01CC015008C6004F08C5004E08C400FD
:100610004D08C3005808A3005708A2005608A100BF
:100620005508A0004C08803A2000D9002100350868
:10063000803A20005902031D202B210034084B0270
:100640000318F02B210058082000A90021005708AA
:100650002000A800210056082000A700210055080E
:100660002000A600210046082000AD00210045081A
:100670002000AC00210044082000AB00210043080A
:100680002000AA008831DF20803120002908C30023
:100690002808C2002708C1002608C0008631F126BC
:1006A0008031200043082100CA00200042082100B8
:1006B000C900200041082100C80020004008210096
:1006C000C7004A08F4004908F3004808F200470848
:1006D000F10094319A24803172082100B900710828
:1006E000B8004A082000A700210049082000A60001
:1006F000210048082000A500210047082000A40090
:10070000210058082000A300210057082000A20063
:10071000210056082000A100210055082000A0005B
:100720008D31D425803120002308BD002208BC0073
:100730002108BB002008BA00210046082000C100A3
:10074000210045082000C000210044082000BF000F
:10075000210043082000BE009F31A22780312000E5
:100760003D082100C60020003C082100C5002000F3
:100770003B082100C40020003A082100C30041309A
:100780002000A9002030A8000030A7000030A600FB
:10079000210058082000AD00210057082000AC00BF
:1007A000210056082000AB00210055082000AA00B7
:1007B0008831DF208031200029082100D800200066
:1007C00028082100D700200027082100D60020009B
:1007D00026082100D5000130CB070030CC3D122B7C
:1007E00040302000A300A030A2000030A100003063
:1007F000A000210058082000A70021005708200071
:10080000A600210056082000A50021005508200060
:10081000A4008D31D4258031200023082100CA0096
:10082000200022082100C900200021082100C80062
:10083000200020082100C70046082000BD0021003C
:1008400045082000BC00210044082000BB00210016
:1008500043082000BA0021004A082000C1002100FE
:1008600049082000C000210048082000BF002100E6
:1008700047082000BE009531772580310318432CAE
:10088000003021005D2C21004608F4004508F300EB
:100890004408F2004308F1004A08F8004908F7004C
:1008A0004808F6004708F500933110238031031CF7
:1008B000642C21003818642C0030CA000030C900B4
:1008C0000030C8000030C70021004A08F400490881
:1008D000F3004808F2004708F1005008F8004F08FC
:1008E000F7004E08F6004D08F5008B31F2238031F9
:1008F00074082100C6007308C5007208C40071089E
:10090000C3002308D8002208D7002108D6002008F9
:10091000D50065303F060319922C5208B7005108E4
:10092000B600942CB601B701B201B301B001B10118
:10093000CB01CC01D12D210058082000A9002100B5
:1009400057082000A800210056082000A700210019
:1009500055082000A600210046082000AD00210017
:1009600045082000AC00210044082000AB00210015
:1009700043082000AA008831DF20803120002908A8
:10098000C3002808C2002708C1002608C00086311D
:10099000F1268031200043082100CA0020004208CF
:1009A0002100C900200041082100C80020004008A3
:1009B0002100C7004A08F4004908F3004808F20083
:1009C0004708F10094319A24803172082100B9005F
:1009D0007108B80022005E1AFC2C21003808390486
:1009E000031DFC2C673042060319B71FFC2C013095
:1009F000B0070030B13D4F2D2100320833040319F8
:100A0000B71F1B2D2E302000D90021005308203E97
:100A10008600023087002000590881000130210043
:100A2000D3070030D43DFF30C007FF30C13D013057
:100A3000B2000030B300300831040319392D3030D2
:100A40002000D90021005308203E86000230870094
:100A500020005908810001302100D3070030D43D27
:100A6000FF30C007FF30C13DFF30B007FF30B13D60
:100A70001B2D3808303E2000D90021005308203EAD
:100A800086000230870020005908810001302100D3
:100A9000D3070030D43DFF30C007FF30C13D4A08C6
:100AA0002000A700210049082000A60021004808D6
:100AB0002000A500210047082000A40021005808BC
:100AC0002000A300210057082000A20021005608A2
:100AD0002000A100210055082000A0008D31D42560
:100AE000803120002308BD002208BC002108BB0083
:100AF0002008BA00210046082000C1002100450856
:100B00002000C000210044082000BF00210043084D
:100B10002000BE009F31A227803120003D08210027
:100B2000C60020003C082100C50020003B08210031
:100B3000C40020003A082100C30041302000A90071
:100B40002030A8000030A7000030A600210058087F
:100B50002000AD00210057082000AC0021005608FD
:100B60002000AB00210055082000AA008831DF20BA
:100B70008031200029082100D80020002808210009
:100B8000D700200027082100D600200026082100D9
:100B9000D500FF30B607FF30B73D0130CB0700303E
:100BA000CC3D4C08803A2000D90021003508803A1D
:100BB00020005902031DDF2D210034084B020318C9
:100BC000EF2D21005408803A2000D90080305902CE
:100BD000031DED2D4B3021005302031C9B2C2100E3
:100BE00032083304031D082E22005E1E082E2E300C
:100BF0002000D90021005308203E860002308700E3
:100C000020005908810001302100D3070030D43D75
:100C100021005308203E86000230870081016530A4
:100C20003F06031DDA2E4F30CB000030CC004B08BE
:100C3000203E8600023087008101BA01BB01D21F2D
:100C40002A2E0130BA000030BB00D109D209D10AE6
:100C50000319D20A0230BD000030BE005108520410
:100C60000319692EFF302100CB07FF30CC3D0A303D
:100C7000F1000030F2005208F4005108F300923104
:100C8000842280317108303E2000D90021004B08B9
:100C9000203E8600023087002000590881000A307B
:100CA000F1000030F20021005208F4005108F30076
:100CB0009331F723803172082100D2007108D100EE
:100CC000FF30BD07FF30BE3DFF30C007FF30C13DE4
:100CD0002E2E3E08803A2000D90080305902031D94
:100CE000742E013021003D020318322EFF30210006
:100CF000CB07FF30CC3D3A083B04031D812E2B303F
:100D0000822E2D30AA000030AB002A082000D90026
:100D100021004B08203E8600023087002000590841
:100D20008100FF302100C007FF30C13DFF30CB07FD
:100D3000FF30CC3D20005808BF3ED900FF300318DB
:100D40000030DA0000305A021A3003195902031831
:100D5000AB2E0130AC2E0030DB00DC015B08210043
:100D6000AE0020005C082100AF002E082F04031DF8
:100D7000BB2E6530BC2E4530AC000030AD002C08D9
:100D80002000D90021004B08203E86000230870059
:100D9000200059088100FF302100C007FF30C13D0D
:100DA0004B08203EF1000230F2005308203E9F31F4
:100DB000C127803120302000D9005908A800210027
:100DC00041082000AA00210040082000A9002100BD
:100DD0003C089331A72320002908D5002808D40017
:100DE0000800220053082000D300220052082000EF
:100DF000D200220051082000D1002200500820001B
:100E0000D0004308D3004208D2004108D100400876
:100E1000D0005008C4005108C5005208C60053084D
:100E2000C7001730C736C60CC50CC40C890B122F6F
:100E3000FF304405C80000304505C9004808813E20
:100E4000CE00FF30493DCF004F08803AC4008030CB
:100E50004402031D2D2F17304E02031808002000F6
:100E6000CF1B8A2FFF30C400FF30C5007F30C60083
:100E70000030C7004E0A402FC737C60CC50CC40C43
:100E8000890B3C2F4708CD004608CC004508CB0015
:100E90004408CA0050084A05C40051084B05C50063
:100EA00052084C05C60053084D05C70047084604C4
:100EB00045044404031908005008C4005108C50043
:100EC0005208C6005308C7001F30C736C60CC50CF1
:100ED000C40C890B652F47084604450444040319D4
:100EE000792F4A08D0074B08D13D4C08D23D4D0818
:100EF000D33D4A09C4004B09C5004C09C6004D0941
:100F0000C7004408D0054508D1054608D205470862
:100F1000D305C02F5008C4005108C5005208C600B0
:100F20005308C7001F30C736C60CC50CC40C890B4C
:100F3000932F4708460445044404031DA32F0030A3
:100F4000D3000030BB2F5008C4005108C500520820
:100F5000C6005308C7000130C435C50DC60DC70D06
:100F6000890BAC2F47084604450444040319C02FDD
:100F7000BF30D3008030D2000030D1000030D0002C
:100F80005308C3005208C2005108C1005008C000F5
:100F90000800F200F301F30A23003C19FE2F720847
:100FA000F1007108B600BC103C153C100E30F10089
:100FB0007108BA00F430B4000130B500BC154530FA
:100FC000A0001D30A100AC014530A2001D30A300DF
:100FD000AD014530A4001D30A500AE014530A6008E
:100FE0001D30A700AF010230A8000030A900B001F9
:100FF0009D314A2587319E314226F301730808004E
:101000002100DE005A08E0005908DF002200D80164
:10101000D90121005F0884006008850012000319CF
:101020002A28DF30DC005C082000DD0021005B089E
:10103000DD005D082000DE0021005E088A315922B3
:10104000883120005D082200D80720005E082200B9
:10105000D93D0928220059082100DA002200580849
:101060002100D900080022006C08C3006B08C200F0
:101070006A08C1006908C00016302100EB006B0847
:101080002200C50017302100EB006B082200C600CB
:101090009F311C2788319D316525883144302300DC
:1010A000DD007D30DC004830DB009330DA00413079
:1010B000D900C630D8001430D7007B30D6008B174B
:1010C0000B17A030860002308700293084000130E1
:1010D000850017302100EB0016001A00EB0B6C287E
:1010E0004430EB006B082300D20041302100EB00BC
:1010F0006B082300D30054302100EB006B08230061
:10110000D40041302100EB006B082300D500DD3016
:1011100021008E0020000C1A8728963189268831FC
:101120000B302100EC002630EB005D30890B962857
:10113000EB0B9628EC0B9628003222000C159D3004
:1011400021008E002200C7014708403E9231042250
:10115000883101302100EB006B082200C707043002
:101160004702031CA4284530923104228831220012
:10117000C7014708CD3E9231042288310130210059
:10118000EB006B082200C70709304702031CB9288F
:1011900046309231042288312200C7014708403E80
:1011A00092310422883101302100EB006B082200CB
:1011B000C70704304702031CCE280C1187282000E3
:1011C0002D088039AE002E08B7002D35AE002E0850
:1011D000BE00AC1B3E143E080319FC283E0A031D4A
:1011E000F9280030AD000030AC000030AB0000301A
:1011F000AA00AC17AD0104290030AD000030AC00EE
:101200000030AB000030AA0029088039AE002E085B
:10121000B7062935AE002E08BF00A81B3F143F08B3
:10122000031920293F0A031D1D290030A9000030A1
:10123000A8000030A7000030A600A817A90128299F
:101240000030A9000030A8000030A7000030A60040
:101250002908280427042604031D47290030AD006F
:101260000030AC000030AB000030AA008030AC048D
:101270007F30AD043708AE002E08AD042D08A9005C
:101280002C08A8002B08A7002A08A60008003E0882
:10129000031D53290030A9000030A8000030A7002A
:1012A0000030A60008003E08AE00AF012F08B100D4
:1012B0003F082E02B000031CB10330087F3EB80087
:1012C0000030313DB9002D08B6002C08B5002B08C0
:1012D000B4002A08B3000030AD000030AC0000308C
:1012E000AB000030AA000030BD000030BC00003070
:1012F000BB000030BA00BF011A303F020318B82902
:101300003F0803199A290130B335B40DB50DB60D58
:10131000890B84290130AA35AB0DAC0DAD0D890BBD
:101320008B29BD1B2A140130BA35BB0DBC0DBD0D78
:10133000890B942929083602031DA829280835029B
:10134000031DA82927083402031DA82926083302F3
:10135000031CB3293D172608B3022708B43B28080D
:10136000B53B2908B63B0130AE002E08BF077C29EB
:101370003608350434043304031D3A14AC1BD52954
:101380000130AA35AB0DAC0DAD0D890BC129BD1BCC
:101390002A140130BA35BB0DBC0DBD0D890BCA290D
:1013A000FF30B807FF30B93DBE29BF01BD1FEE2990
:1013B000FF303A05AE00FF303B05AF00FF303C0583
:1013C000B0007F303D05B100310830042F042E04F9
:1013D00003192A18EC29EE29BF01BF0A3F08031997
:1013E000172A0130AA070030AB3D0030AC3D003079
:1013F000AD3D2D1C172A2A08AE002B08AF002C0883
:10140000B0002D08B1000130B200B137B00CAF0C04
:10141000AE0CB20B052A3108AD003008AC002F0825
:10142000AB002E08AA000130B8070030B93D3908DA
:10143000803AAE0080302E02031D202AFF30380291
:10144000031C2F2AFF302000B8000030B900003004
:10145000AD000030AC000030AB000030AA0020002E
:101460003908803AAE0080302E02031D392A01303F
:1014700038020318472A2000B801B9010030AD0036
:101480000030AC000030AB000030AA00B7012000F3
:101490003808AE002E08BE003E1C502AAC17542A55
:1014A0007F30AE002E08AC053E36AE002E08AD00F3
:1014B0003A292000EF005D0886008701403FDF00E9
:1014C000413FE0005F088400600885001200253A73
:1014D000031DCF2B5D088600870101308107413154
:1014E0000318810A2200DA01DB01DE01DF01FF308F
:1014F000DC00FF30DD0020005D0886008701403FF2
:10150000DF00413FE0005F088400600885000008BC
:10151000E100E2016108F7006208F8009031122052
:101520008A3177082000E3006308E70067080319A1
:10153000D62A5D0886008701403FDF00413FE0007A
:1015400001305F07840060080318600A8500000806
:10155000E100E2016108F7006208F8009031122012
:101560008A3177082000E3006308E800680803195F
:10157000D62A5D0886008701403FDF00413FE0003A
:1015800002305F07840060080318600A85000008C5
:10159000E100E2016108F7006208F80090311220D2
:1015A0008A3177082000E3006308E90066306706A7
:1015B000031D162B5D0886008701403FDF00413F79
:1015C000E0005F088400600885000008E100610811
:1015D000EE005D0886008701013081074131031864
:1015E000810A5E08860087010108840085010430B5
:1015F0008107003FEA00013FEB00023FEC00033FA0
:10160000ED006D08D7006C08D6006B08D5006A089D
:10161000D4006E08DF005F08D8006F0880315D20BD
:1016200020005508DE005408DD0008003130F100CC
:10163000A030F2000230F3000030F4006730933144
:1016400059238A3171087204031D9C2B20005D0808
:1016500086008701403FDF00413FE00001305F0727
:10166000840060080318600A85000008E100610832
:10167000EE005D0886008701403FDF00413FE0004B
:101680005F088400600885000008BF3EE100FF306D
:1016900003180030E200003062021A3003196102C0
:1016A0000318542B0130552B0030E300E40163088C
:1016B000E5006408E6006508660403196F2B5E0800
:1016C0008600870101088400850104308107003FFE
:1016D000EA00013FEB00023FEC00033F7E2B5E0877
:1016E0008600870101088400850104308107003FDE
:1016F000EA00013FEB00023FEC00033FED005D0814
:10170000860087010230810741310318810A6D0884
:10171000D7006C08D6006B08D5006A08D4006E08A4
:10172000DF005F08D8006F0880315D202000550879
:10173000DE005408DD00080020005D0886008701F7
:10174000403FDF00413FE0005F0884006008850003
:101750001200253A031DC42B5D0886008701013065
:10176000810741310318810A2530F4000030F5006B
:101770006F08DF005F08F6009131942101302000EE
:10178000DD000030DE0008005D08860087010130C2
:10179000810741310318810ADD01DE0108005D087F
:1017A00086008701403FDF00413FE0005F08840082
:1017B000600885000008E100E2016108F4006208A9
:1017C000F5006F08E3006308F600913194218A3137
:1017D00020005D0886008701013081074131031830
:1017E000810ABE2B740880392000A0002008A800C0
:1017F0007435A0002008AA00F31B2A142A08031934
:101800000F2C2A0A031D0C2C0030F4000030F300CA
:101810000030F2000030F100F317F401172C003013
:10182000F4000030F3000030F2000030F1007808DE
:101830008039A0002008A90029082806031D2817C0
:101840007835A0002008A900F71B291429080319DE
:10185000372C290A031D342C0030F8000030F70023
:101860000030F6000030F500F717F8013F2C00308B
:10187000F8000030F7000030F6000030F5002A08CC
:1018800029020318852C281F492C8030A00020082D
:10189000A8062A08A0002008AB002908A0002008FC
:1018A000AA002B08A0002008A9007108A0002008A9
:1018B000AB007508A0002008F1002B08A00020084C
:1018C000F5007208A0002008AB007608A0002008F0
:1018D000F2002B08A0002008F6007308A0002008E2
:1018E000AB007708A0002008F3002B08A000200818
:1018F000F7007408A0002008AB007808A0002008BA
:10190000F4002B08A0002008F800AB012908A00073
:10191000A1012108A3002A082002A200031CA3039E
:101920002308803AA40080302402031D992C1A3029
:101930002202031CCD2C7408730472047104031971
:10194000A32C0130A42C00302000A0002008AB0004
:101950000030F4000030F3000030F2000030F100FD
:101960002908A0002008AA00D22C2B1CBD2C2B3645
:101970000138A0002008AB00BF2C0310AB0C71187D
:10198000AB170130A000F437F30CF20CF10CA00BF4
:10199000C32C0130A0002008AA07200029082A0231
:1019A000031CB52C281B032D2A08031DE02C003036
:1019B000F4000030F3000030F2000030F1000800C5
:1019C0007508F1077608F23D7708F33D7808F43D95
:1019D000741C7D2D2B1CF22C2B360138A000200806
:1019E000AB00F42C0310AB0C7118AB170130A00046
:1019F000F437F30CF20CF10CA00BF82C0130A00022
:101A00002008AA077D2D7408803AA0007808803A43
:101A10002002031D152D77087302031D152D76086E
:101A20007202031D152D7508710203184D2DFF302C
:101A3000A000FF30A100FF30A200FF30A30071081A
:101A40007502A4007208763BA5007308773BA600D8
:101A50007408783BA7002408A0072508A13D2608A4
:101A6000A23D2708A33D2308F4002208F300210823
:101A7000F2002008F1008030A0002008A806AB0981
:101A8000AB0A2B08031D552D0130F1070030F23D44
:101A90000030F33D0030F43D552D7508F102760815
:101AA000F23B7708F33B7808F43B74087304720444
:101AB0007104031D7B2D2B08031D7B2D0030F400CA
:101AC0000030F3000030F2000030F1000800013077
:101AD000F135F20DF30DF40D890B682DAB1B71146C
:101AE0002B1C742D0314752D0310AB0D2A0803193C
:101AF0007B2D0130AA02F31F672DA901AB1F882D92
:101B00002B087F3903197118862D882DA901A90A80
:101B100029080319B42D0130F1070030F23D0030DF
:101B2000F33D0030F43D741CB42D7108A000720820
:101B3000A1007308A2007408A3000130A400A33719
:101B4000A20CA10CA00CA40B9F2D2308F4002208CA
:101B5000F3002108F2002008F1002A0A0319B42D2D
:101B60000130A0002008AA072A0A031D2A08031D25
:101B7000C42D0030F4000030F3000030F2000030DB
:101B8000F1002A080319A8012A1CC82DF317CC2D2F
:101B90007F30A0002008F3052A36A0002008F400BA
:101BA000A81F0800F4170800200023088039A800A7
:101BB0002808AD002335A8002808B300A21B331461
:101BC00033080319F02D330A031DEE2D0030A30056
:101BD0000030A2000030A1000030A000A217F82DB4
:101BE0000030A3000030A2000030A1000030A000AF
:101BF00027088039A8002808AD062735A80028083E
:101C0000B200A61B321432080319132E320A031D28
:101C1000112E0030A7000030A6000030A5000030D3
:101C2000A400A6171B2E0030A7000030A60000302D
:101C3000A5000030A4003208031D3308031D292E1F
:101C40000030A3000030A2000030A1000030A0004E
:101C500008002008A8002808F10026089F318327E3
:101C60008D3172082000B9007108B8003808A8004A
:101C7000A901AA01AB012B08B1002A08B00029086C
:101C8000AF002808AE003908A800A901AA01AB01DD
:101C90002B08B7002A08B6002908B5002808B400A8
:101CA0002108A8002808F10025089F3183278D31DD
:101CB00072082000B9007108B8003808A800A9010E
:101CC000AA01AB012808AE072908AF3D2A08B03D9C
:101CD0002B08B13D3908A800A901AA01AB012808C9
:101CE000B4072908B53D2A08B63D2B08B73D2208A0
:101CF000A8002808F10024089F3183278D3172083D
:101D00002000B9007108B8003808A800A901AA018C
:101D1000AB012808AE072908AF3D2A08B03D2B08C3
:101D2000B13D3908A800A901AA01AB012808B407F0
:101D30002908B53D2A08B63D2B08B73D0830AE3519
:101D4000AF0DB00DB10D890B9F2E2108A8002808FA
:101D5000F10024089F3183278D3172082000B900DB
:101D60007108B8003808AE073908AF3D0030B03D03
:101D7000B13D2008A8002808F10025089F318327DD
:101D80008D3172082000B9007108B8003808AE071C
:101D90003908AF3D0030B03DB13D0830AE35AF0D34
:101DA000B00DB10D890BCE2E2008A8002808F10037
:101DB00024089F3183278D3172082000B9007108F3
:101DC000B8003808AE073908AF3D0030B03DB13D2E
:101DD0002108A8002808F10026089F3183278D31AB
:101DE00072082000B9007108B8003808B407390833
:101DF000B53D0030B63DB73D2208A8002808F100E7
:101E000025089F3183278D3172082000B9007108A1
:101E1000B8003808B4073908B53D0030B63DB73DC5
:101E20002208A8002808F10026089F3183278D3159
:101E300072082000B9007108B8003808A8003908F5
:101E4000A900AA01AB010830A835A90DAA0DAB0D58
:101E5000890B242F2808B4072908B53D2A08B63D68
:101E60002B08B73D2E08A8002F08A9003008AA00AB
:101E70003108AB001830AB36AA0CA90CA80C890BA2
:101E80003B2F2808B4072908B53D2A08B63D2B0882
:101E9000B73D0830AE35AF0DB00DB10D890B4A2FEF
:101EA00033083207A800A901A90D2808823EB8000E
:101EB000FF30293DB900B61B722F0130B435B50D86
:101EC000B60DB70D890B5E2FB11B34140130AE3542
:101ED000AF0DB00DB10D890B672FFF30B807FF3084
:101EE000B93D5B2FB201B11F8B2FFF302E05A8002B
:101EF000FF302F05A900FF303005AA007F303105E3
:101F0000AB002B082A042904280403193418892F4C
:101F10008B2FB201B20A32080319B42F0130B40773
:101F20000030B53D0030B63D0030B73D371CB42F12
:101F30003408A8003508A9003608AA003708AB0005
:101F40000130AC00AB37AA0CA90CA80CAC0BA22F2B
:101F50002B08B7002A08B6002908B5002808B400E5
:101F60000130B8070030B93D3908803AA800803008
:101F70002802031DBD2FFF303802031CC92F7F30FC
:101F80002000B7008030B6000030B5000030B4004B
:101F9000F32F20003908803AA80080302802031D62
:101FA000D32F013038020318E02F00302000B70093
:101FB0000030B6000030B5000030B400AD01F32FA2
:101FC00020003808A8002808B300FF30B405FF300F
:101FD000B5057F30B6050030B7053318B617333670
:101FE000A8002808B7002D08A8002808B70437085B
:101FF000A3003608A2003508A1003408A00008009C
:102000000800E3302100E7006708EA006208DA0010
:102010006108D900EA30E7006708DB00003088314A
:10202000002008007708BF3E2000A000FF30783D68
:10203000A100003021021A300319200203182228BF
:10204000013023280030A200A3012208F900230850
:10205000FA0079087A040319080020307704F700A1
:1020600000307804F8000800F20022006F0803191D
:1020700035282100111A4028720823009A0055289B
:1020800011127208F1006F08C53E8600013087000A
:10209000710881000130F1007108EF0708306F020C
:1020A0000318EF0101302200EF0221001116080091
:1020B0002000A700A501A60125082707A1002108E7
:1020C0008600023087000108A2002208A40024082C
:1020D000031908002408A100A2012108F400220825
:1020E000F5002008A3002308F600913194219031D7
:1020F00001302000A5070030A63D5C28F5007108DE
:102100007204031996287535A03E860001308700B9
:102110007108C03F7208C13F7308F4007508AC3EF7
:102120008600013087007408810008007535A03EE4
:102130008600013087004530C03F1D30C13F750823
:10214000AC3E860001308700810108009D314A25A0
:10215000903123003C1CB8289D31D2259031003AA3
:102160000319B8280F302000A30023082300BA0069
:1021700023003A082000A300A401A335A40D0030D9
:10218000230784009830243D8500013F8A00003FEA
:102190000A0090312000A50025082300BA0008009D
:1021A0002300BC15DD289D31802508009D31622566
:1021B000033008009D31842508002C082000A00071
:1021C0002008FA00230021088A0020080A00903124
:1021D0002000A100A2012208003A0319F028DA2801
:1021E0002108013A0319DA28033A0319D328013ADE
:1021F0000319D328073A0319D628DA280800230040
:102200003C1002302000A00020082300BB000E2953
:102210009D31802508009D31842508002E0820006E
:10222000A0002008FA000430A03E8600013087009C
:10223000413F8A00403F0A0091312000A100A201E5
:102240002208003A031925290B292108023A03190B
:102250000829013A031908290B2908002000AA00BF
:10226000AB0120002A088731C9279131003A0319B0
:1022700031298F30F6001E30F7002B302000A900E6
:102280002908F8009E31592691310130F1000030C3
:10229000F20028309E31712691310030F600F700AF
:1022A000F8019E31652691319D31982591319F31FC
:1022B0004C279131013A0319572920002B080800B7
:1022C0007C08483E860001308700810123001D1DE7
:1022D00074297C08483E8600013087008114630819
:1022E0008A0062080A00913123009D1C82297C0823
:1022F000483E860001308700011561088A006008A9
:102300000A0091317C08483E8600013087000108B0
:102310000319912923005F088A005E080A009131A1
:1023200008009F31042708007608031D7608031D66
:102330009D2974089D31AF2508007608033E86006C
:102340008701160001040319C0297608033E8600A0
:102350008701403FF700413FF800760A8600870179
:10236000403FF900413FFA007A08803AFB007808C4
:10237000803A7B02031DBE29770879020318080002
:10238000760A860087010130810741310318810AEE
:10239000080022008C018D018E01333021008C0059
:1023A00070308D009D308E00F73023008E0080301D
:1023B0008D0027308C00503024008D008C018E0160
:1023C00025008C018D018E01373026008C00F03005
:1023D0008D00FF308E003F3027008C00F0308D00E4
:1023E000FF308E000D303C00A4000E30A0001830ED
:1023F0003D009E0014309F0019309C000230A60062
:102400000C303C00A1000800F3009E3138269231C8
:102410004630F1004230890B0B2AF10B0B2A0000E9
:10242000F20173088600013087000108F100720A8A
:102430001A2AF136890B192A711C222A9E312E265E
:102440009231252A9E31382692314630F1004230B1
:10245000890B282AF10B282A00000130F1007108AD
:10246000F20708307202031C112A9E312E26923187
:102470004630F1004230890B3B2AF10B3B2A000029
:102480000800210091126030F1001130F2009D31FE
:10249000C625923121001112E030F1001F30F20008
:1024A0009D31CC259231083023009F0090309D0053
:1024B00024309E00A0309B0001309C000030F100D1
:1024C0001030F2009D31BA2592316830F1001D3094
:1024D000F2009D31C02592314730F1001D30F200ED
:1024E0009D31B4252200E1012100EF01EE01083009
:1024F000F30073082200EF00FC012100ED0122002F
:10250000E201210091160800F701F41F8E2AF30959
:10251000F409F30A0319F40AF701F70AF21F952ADE
:10252000F109F209F10A0319F20A71087204031998
:10253000BC2AF601F60AF21BA72A0130F135F20D8A
:10254000890B9E2A0130F5007508F6079B2A720850
:102550007402031DAD2A71087302031CB32A7108AB
:10256000F3027208F43B0130F236F10C890BB42A05
:102570000130F602031DA72A77080319C42AF309BC
:10258000F409F30A0319F40A7408F2007308F1005D
:1025900008009D315F2592312000A00023003708FC
:1025A000860087012000200881000130A00020085B
:1025B0002300B7070130B8020030B93B38083904AE
:1025C0000319E62A9D31742505300800BC15EE2A52
:1025D0009D31902508009D318C2508002C08200095
:1025E000A0002008FA00230021088A0020080A0021
:1025F00092312000A100A2012208003A0319012B08
:10260000EB2A2108013A0319EB2A033A0319E82AB5
:10261000013A0319E82A073A0319EB2AEB2A0800C2
:10262000003071052000A00000307205A10080304C
:102630007305A2007F307405A3002308220421043F
:102640002004031D2B2B0030F4000030F300003079
:10265000F2000030F10000307505A0000030760572
:10266000A10080307705A2007F307805A300230801
:10267000220421042004031D452B0030F800003003
:10268000F7000030F6000030F50078087406031DEE
:10269000532B77087306031D532B76087206031D10
:1026A000532B750871060319572B031008000314E8
:1026B0000800F6007608F5007508F9007208F800C1
:1026C0007108F7000130F3020030F43B730A031D78
:1026D000932B740A031D932BF101F2010800770874
:1026E00084007808850012000319992B730874047C
:1026F0000319992B77088400780885000008F500F5
:1027000079088600870101087506031D992B0130A1
:10271000F5007508F9070130F7070030F83D013082
:10272000F3020030F43B7908860087010108031D9D
:102730006F2B790886008701770884007808850068
:1027400000080102F100F201031CF203080020005E
:10275000B00022005E1CB52B20003008AB002B0817
:10276000A00028089031582093312000AA1BBD2BCF
:102770002A08AF002908AE00BF2BAE01AF01AC01A3
:10278000AD012D08803AAB002F08803A2B02031DC3
:10279000CB2B2E082C020318DF2B2030F400003046
:1027A000F50020003008AB002B08F6009131942191
:1027B000933101302000AC070030AD3DC12B220029
:1027C0005E18EB2B20003008AB002B08A000280877
:1027D000903158209331200028089F313427200061
:1027E0002E087107A8002F08723DA9000800F70104
:1027F000F21F012CF109F209F10A0319F20AF7019B
:10280000F70AF41F0C2CF309F409F30A0319F40A6C
:102810000130F5007508F706F801F9017108720436
:1028200003193B2CF601F60AF21B202C0130F1357E
:10283000F20D890B172C0130F5007508F607142CE2
:102840000130F835F90D890B212C72087402031D33
:102850002B2C71087302031C322C7108F3027208CE
:10286000F43B78140130F236F10C890B332C013033
:10287000F602031D202C77080319432CF809F909E7
:10288000F80A0319F90A7908F2007808F10008003B
:102890009D31D2259431003A031D582C7E2C9D3158
:1028A000782508009D317C2508009D31842508008D
:1028B00023002F082000A0002008FA000630A03EC8
:1028C000860001308700413F8A00403F0A00943172
:1028D0002000A100A2012208003A0319702C552CF7
:1028E0002108013A0319552C033A03194F2C013AD8
:1028F0000319522C073A0319552C552C23003C1070
:102900001730A03E860001308700403F84008501DB
:10291000810A00089D31A025943101302300B802BE
:102920000030B93B38083904031D982C06300800E4
:10293000033008000310730D740DF5007508FB00DB
:102940007B08031DAC2C0030F4000030F300003095
:10295000F2000030F10008007108F5007208F6007E
:102960007308F7007408F8001F30F836F70CF60CFF
:10297000F50C890BB52C7508F9007908FA00F317E6
:10298000FF30F105FF30F205FF30F3050030F405AC
:102990009630FB02FB1FDF2C7B08803A973E031C1E
:1029A000A32C0130F436F30CF20CF10C890BD22C71
:1029B0000130F5007508FB070319F02CD12C2030ED
:1029C0007B020318A32C7B080319F02C0130F1358E
:1029D000F20DF30DF40D890BE72C0130FB02E32C13
:1029E0007A0803190800F109F209F309F409F10A58
:1029F0000319F20A0319F30A0319F40A0800220062
:102A000057082000A500220056082000A40022003C
:102A100055082000A300220054082000A2007408DA
:102A2000A5007308A4007208A3007108A200220880
:102A3000F5002308F6002408F7002508F8001730F1
:102A4000F836F70CF60CF50C890B202DFF307505C8
:102A5000A00000307605A10020082104031D4F2DA1
:102A60002208F5002308F6002408F7002508F800DE
:102A70000130F535F60DF70DF80D890B392D780875
:102A8000770476047504031D4A2D0230F1000030EE
:102A9000F20008000330F1000030F2000800200AC4
:102AA0002104031D722D2208F5002308F6002408D6
:102AB000F7002508F8000930F535F60DF70DF80D8B
:102AC000890B5C2D7808770476047504031D6A2D44
:102AD00001306B2D0030F900FA017908F1007A0815
:102AE000F20008000430F1000030F200080000306D
:102AF00020003A05C20000303B05C30080303C0591
:102B0000C4007F303D05C500450844044304420429
:102B1000031D922D0030BD000030BC000030BB0012
:102B20000030BA0000303E05C20000303F05C3004F
:102B300080304005C4007F304105C500450844048D
:102B400043044204031DAC2D0030C1000030C0001E
:102B50000030BF000030BE00BD1FC62D0030C200D7
:102B60000030C3000030C4008030C5003A08C20203
:102B70003B08C33B3C08C43B3D08C53B4508BD0082
:102B80004408BC004308BB004208BA00C11FE02D46
:102B90000030C2000030C3000030C4008030C500E7
:102BA0003E08C2023F08C33B4008C43B4108C53B46
:102BB0004508C1004408C0004308BF004208BE00E9
:102BC0008030BD068030C10641083D02031D08006B
:102BD00040083C02031D08003F083B02031D08009B
:102BE0003E083A0208002000A0002008031DF41F40
:102BF000092E7109A2007209A3007309A4007409C7
:102C0000A500A20A0319A30A0319A40A0319A50A15
:102C1000112E7408A5007308A4007208A30071089F
:102C2000A2007408730472047104031D202E003086
:102C3000F4000030F3000030F2000030F100080032
:102C40009630F5007508A100FE3025050319472EC2
:102C50000130F5007508A1070130A536A40CA30CBE
:102C6000A20C890B2D2E242E0130F5007508A1072A
:102C70000130A2070030A33D0030A43D0030A53D47
:102C80000130A536A40CA30CA20C890B412EFF30F9
:102C900025050319592E342E02302102031C5B2E08
:102CA0000130A1020130A235A30DA40DA50D890BA1
:102CB000532EA41F4C2E2118652EFF30A205FF3085
:102CC000A3057F30A405FF30A5050310A10C210842
:102CD000F500F601F701F8011830F535F60DF70D9E
:102CE000F80D890B6D2E7508A2047608A3047708E9
:102CF000A4047808A5042008031DF41F802EA5173E
:102D00002508F4002408F3002308F2002208F1004B
:102D1000080000302200E6000030E5000030E4004A
:102D20000030E3002A30A00020082000A8005D3019
:102D300091312E2196312200A100A201A301A4010C
:102D40002408E6002308E5002208E4002108E30047
:102D50006308A00020082300CD0029302200A00035
:102D600020082000A8005D3091312E2196312200EC
:102D7000A100A201A301A4016308A5006408A600A4
:102D80006508A7006608A8000830A535A60DA70DA0
:102D9000A80D890BC52E2508A1072608A23D2708E6
:102DA000A33D2808A43D2408E6002308E5002208E6
:102DB000E4002108E30063080F39A0002008230085
:102DC000CE0028302200A00020082000A8005D309E
:102DD00091312E2196312200A100A201A301A4016C
:102DE0006308A5006408A6006508A7006608A80097
:102DF0000830A535A60DA70DA80D890BF92E2508BD
:102E0000A1072608A23D2708A33D2808A43D2408C1
:102E1000E6002308E5002208E4002108E300630837
:102E20000F39A00020082300CF002200E51F2C2F1F
:102E300000306304A00000306404A1000030650489
:102E4000A200FF306604A3002308E6002208E50084
:102E50002108E4002008E30045302000A90080306C
:102E6000A8000030A7000030A60022006608F40089
:102E70006508F3006408F2006308F1000030953142
:102E8000F325963174082000AD007308AC00720879
:102E9000AB007108AA008831DF2096312000290894
:102EA0002300DD00200028082300DC002000270884
:102EB0002300DB00200026082300DA000B3022006C
:102EC000A1002630A0005D30890B642FA00B642F79
:102ED000A10B642F00322200E701E8012C30A00092
:102EE00020082000A8005D3091312E21963122006B
:102EF000A100A2012108E7002208E80067080F39B5
:102F0000A00020082300D0002B302200A0002008C1
:102F10002000A8005D3091312E2196312200A100C1
:102F2000A2016708A400A30121082307E7002208E3
:102F3000243DE80067080F39A00020082300D100D5
:102F400042302000A900C830A8000030A70000309F
:102F5000A60022006708F1006808F200F301F401FE
:102F600000309531F325963174082000AD007308C8
:102F7000AC007208AB007108AA008831DF209631DE
:102F8000200029082300D900200028082300D800A9
:102F9000200027082300D700200026082300D600A1
:102FA00012302100E100A030E20023005D08210082
:102FB000E60023005C082100E50023005B082100F7
:102FC000E40023005A082100E300903101209631EB
:102FD00000302100E100A030E20023005908210068
:102FE000E600230058082100E500230057082100CF
:102FF000E400230056082100E3009031012008007E
:10300000A5341D3401341E34EA341D3448341434DC
:10301000C9341234D8341D34D034103478341D34CB
:103020007C341D3480341D3484341D3488341D3484
:103030008C341D3490341D34AA341D34FF341034C4
:103A8A00013008009F310427080020009111080026
:103A9A002400951208002100911108002400161430
:103AAA0008002400961408002400161508002400B3
:103ABA009615080024001108080020009115080036
:103ACA002C009901080023001D121D16080016304B
:103ADA0021009700080024009616161608002400F4
:103AEA009612161608009D315625013008009D31A0
:103AFA005625023008009D315625013008009D31B7
:103B0A005925003008009D317425053008009D3183
:103B1A0070250A3008009D31702509300800200000
:103B2A0091190800942D00309F3165270800FF3451
:103B3A000034FF340034F1007108240091000800B9
:103B4A002300BC10BB010E3008002300BC10BB01CF
:103B5A000E300800F3007308903134200800720810
:103B6A002300DF007108DE00080072082300E3006A
:103B7A007108E200080072082300E1007108E00001
:103B8A00080072082300E5007108E40008007208C2
:103B9A002200EE007108ED0008002400160E890CC0
:103BAA00890C0139080023003C109D315C25043042
:103BBA000800640080010131890BDF2D0034FE000A
:103BCA0012001E00FE0BE52D003423003C1436358E
:103BDA009D31A02503300800320091019201930122
:103BEA009401950196010800683020009E009D010D
:103BFA00911005309F00080023003C140314360D71
:103C0A009D31A02505300800240094010830950054
:103C1A009601273092009512080060303200990010
:103C2A009B019D0106309F009E01080074087304E1
:103C3A0072047104031908008030F4060800230096
:103C4A00BC1C08009D3194259E319031A6209E31DE
:103C5A00242E80302C009900683020009E003430D9
:103C6A002C009800080080302C0099007430200045
:103C7A009E003A302C00980008002400951A08008B
:103C8A009401083095009601273092009516080095
:103C9A0080302C00990034309800403097001F087B
:103CAA00FC3901389F0008007708F2007608F10015
:103CBA007808F9007908F300003090317E20080076
:103CCA007708F2007608F1007808F9007908F3001D
:103CDA00023090317E200800F4002300BC1D080049
:103CEA007408F3007308B7007208B9007108B800C5
:103CFA00BC1108000230F1000030F2007A089E314F
:103D0A0071269E310030F600F700F8019E315926DF
:103D1A00043008000130F1000030F2007A089E31C8
:103D2A0071269E310030F600F700F8019E315926BF
:103D3A00023008000230F1000030F2007A089E31A9
:103D4A0071269E310030F600F700F8019E3159269F
:103D5A00023008000130F1000030F2007A089E318A
:103D6A0071269E310030F600F700F8019E3159267F
:103D7A00043008007A0886008701403FF100413F7D
:103D8A00F2007A08023E8600870101089E317126F8
:103D9A009E310030F600F700F8019E3159260230B4
:103DAA0008007108BF3EF300FF30723DF400003096
:103DBA0074021A30031973020318E52E0130E62E35
:103DCA000030F500F6017508F1007608F2000800E7
:103DDA00FF340034FF3400341634483445344C344C
:103DEA004C344F342034533445344E3453344F34E6
:103DFA00523453341734FF340034FF340034230070
:103E0A001908F0007C08BD3E860001308700700862
:103E1A0081000130F0007008FC0708307C020318AA
:103E2A00FC010130F00070082200E20708009D3111
:103E3A00F1259F319E3109269F319131C9219F3148
:103E4A009E3112269F319D316C259F319D31F92576
:103E5A009F319E314D269F31923141220800F50053
:103E6A007508F3007308F4007508860002308700AD
:103E7A0001080319452F0130F3007308F507392F9C
:103E8A0074087502F100F201F11BF2030800F20155
:103E9A00F20A2300BC18632F3C11FF30F1007108AD
:103EAA00B6009D314A259F319D3150259F319D3164
:103EBA004D2523003B08F1007108F2007208080042
:103ECA002000A600A701A70A2300BC18802FBC1453
:103EDA002000A70126080319762F2300BA01BA0A7F
:103EEA007B2F0230FB007B082300BA009D3153254B
:103EFA009F319E312426200027080800F900F50189
:103F0A00F6017108F300F4017308F7007408F80069
:103F1A00791C932F7708F5077808F63D0130F735B5
:103F2A00F80D890B942F0310F90C7908031D8D2FB6
:103F3A007608F2007508F100080080302000BD06FE
:103F4A004108F4004008F3003F08F2003E08F1007F
:103F5A003D08F8003C08F7003B08F6003A08F5006F
:103F6A008B31F22374082000BD007308BC0072086C
:103F7A00BB007108BA000800F8007208F600710860
:103F8A00F5007808F3007308F70077088600023016
:103F9A008700F70A7608F4007508F300F50A031992
:103FAA00F60A73088400740885000008C03F89086F
:103FBA0003190800CA2F083022006F020318FD2FC8
:103FCA0021006E08C53E86000130870001082300E3
:103FDA009A000130F00070082100EE0708306E02E6
:103FEA000318EE010130F00070082200EF07080004
:103FFA00210011120800543465346D34703465346C
:10400A0072346134743475347234653420343A3419
:10401A002034253466340A3400345034723465341A
:10402A007334733475347234653420343A3420343A
:10403A00253466340A34003449344E344634003464
:10404A004E3441344E34003469346E3466340034AC
:0E405A006E3461346E3400346C3466340034DD
:020000040001F9
:08000E00ECFFF3FFFFFFFFFF11
:00000001FF
